{
  "_format": "hh-sol-artifact-1",
  "contractName": "FlashBotV2",
  "sourceName": "contracts/FlashBotV2.sol",
  "abi": [
    {
      "inputs": [
        {
          "internalType": "address",
          "name": "_WBNB",
          "type": "address"
        },
        {
          "internalType": "uint256",
          "name": "_minProfit",
          "type": "uint256"
        }
      ],
      "stateMutability": "nonpayable",
      "type": "constructor"
    },
    {
      "anonymous": false,
      "inputs": [
        {
          "indexed": true,
          "internalType": "address",
          "name": "token",
          "type": "address"
        }
      ],
      "name": "BaseTokenAdded",
      "type": "event"
    },
    {
      "anonymous": false,
      "inputs": [
        {
          "indexed": true,
          "internalType": "address",
          "name": "token",
          "type": "address"
        }
      ],
      "name": "BaseTokenRemoved",
      "type": "event"
    },
    {
      "anonymous": false,
      "inputs": [
        {
          "indexed": true,
          "internalType": "address",
          "name": "previousOwner",
          "type": "address"
        },
        {
          "indexed": true,
          "internalType": "address",
          "name": "newOwner",
          "type": "address"
        }
      ],
      "name": "OwnershipTransferred",
      "type": "event"
    },
    {
      "anonymous": false,
      "inputs": [
        {
          "indexed": true,
          "internalType": "address",
          "name": "to",
          "type": "address"
        },
        {
          "indexed": true,
          "internalType": "uint256",
          "name": "value",
          "type": "uint256"
        }
      ],
      "name": "Withdrawn",
      "type": "event"
    },
    {
      "stateMutability": "nonpayable",
      "type": "fallback"
    },
    {
      "inputs": [
        {
          "internalType": "address",
          "name": "token",
          "type": "address"
        },
        {
          "internalType": "uint256",
          "name": "_minProfit",
          "type": "uint256"
        }
      ],
      "name": "addBaseToken",
      "outputs": [],
      "stateMutability": "nonpayable",
      "type": "function"
    },
    {
      "inputs": [
        {
          "internalType": "address",
          "name": "token",
          "type": "address"
        }
      ],
      "name": "baseTokensContains",
      "outputs": [
        {
          "internalType": "bool",
          "name": "",
          "type": "bool"
        }
      ],
      "stateMutability": "view",
      "type": "function"
    },
    {
      "inputs": [
        {
          "internalType": "address",
          "name": "",
          "type": "address"
        }
      ],
      "name": "baseTokensMinProfit",
      "outputs": [
        {
          "internalType": "uint256",
          "name": "",
          "type": "uint256"
        }
      ],
      "stateMutability": "view",
      "type": "function"
    },
    {
      "inputs": [
        {
          "internalType": "address",
          "name": "_lowerPool",
          "type": "address"
        },
        {
          "internalType": "address",
          "name": "_higherPool",
          "type": "address"
        },
        {
          "internalType": "bool",
          "name": "_isbaseTokenSmaller",
          "type": "bool"
        },
        {
          "internalType": "address",
          "name": "_baseToken",
          "type": "address"
        },
        {
          "internalType": "address",
          "name": "_quoteToken",
          "type": "address"
        }
      ],
      "name": "flashArbitrageforYulin",
      "outputs": [],
      "stateMutability": "nonpayable",
      "type": "function"
    },
    {
      "inputs": [],
      "name": "getBaseTokens",
      "outputs": [
        {
          "internalType": "address[]",
          "name": "tokens",
          "type": "address[]"
        }
      ],
      "stateMutability": "view",
      "type": "function"
    },
    {
      "inputs": [
        {
          "internalType": "address",
          "name": "pool0",
          "type": "address"
        },
        {
          "internalType": "address",
          "name": "pool1",
          "type": "address"
        }
      ],
      "name": "getProfit",
      "outputs": [
        {
          "internalType": "uint256",
          "name": "profit",
          "type": "uint256"
        },
        {
          "internalType": "address",
          "name": "baseToken",
          "type": "address"
        }
      ],
      "stateMutability": "view",
      "type": "function"
    },
    {
      "inputs": [],
      "name": "owner",
      "outputs": [
        {
          "internalType": "address",
          "name": "",
          "type": "address"
        }
      ],
      "stateMutability": "view",
      "type": "function"
    },
    {
      "inputs": [
        {
          "internalType": "address",
          "name": "token",
          "type": "address"
        }
      ],
      "name": "removeBaseToken",
      "outputs": [],
      "stateMutability": "nonpayable",
      "type": "function"
    },
    {
      "inputs": [],
      "name": "renounceOwnership",
      "outputs": [],
      "stateMutability": "nonpayable",
      "type": "function"
    },
    {
      "inputs": [
        {
          "internalType": "address",
          "name": "token",
          "type": "address"
        },
        {
          "internalType": "uint256",
          "name": "_minProfit",
          "type": "uint256"
        }
      ],
      "name": "setBaseTokenMinProfit",
      "outputs": [],
      "stateMutability": "nonpayable",
      "type": "function"
    },
    {
      "inputs": [
        {
          "internalType": "address",
          "name": "newOwner",
          "type": "address"
        }
      ],
      "name": "transferOwnership",
      "outputs": [],
      "stateMutability": "nonpayable",
      "type": "function"
    },
    {
      "inputs": [
        {
          "internalType": "address",
          "name": "sender",
          "type": "address"
        },
        {
          "internalType": "uint256",
          "name": "amount0",
          "type": "uint256"
        },
        {
          "internalType": "uint256",
          "name": "amount1",
          "type": "uint256"
        },
        {
          "internalType": "bytes",
          "name": "data",
          "type": "bytes"
        }
      ],
      "name": "uniswapV2Call",
      "outputs": [],
      "stateMutability": "nonpayable",
      "type": "function"
    },
    {
      "inputs": [],
      "name": "wallet",
      "outputs": [
        {
          "internalType": "address",
          "name": "",
          "type": "address"
        }
      ],
      "stateMutability": "view",
      "type": "function"
    },
    {
      "inputs": [],
      "name": "withdraw",
      "outputs": [],
      "stateMutability": "nonpayable",
      "type": "function"
    },
    {
      "stateMutability": "payable",
      "type": "receive"
    }
  ],
  "bytecode": "0x60c060405273626b0bb69bc86aa0e8b5a1c167857a66514e36e173ffffffffffffffffffffffffffffffffffffffff1660809073ffffffffffffffffffffffffffffffffffffffff168152503480156200005857600080fd5b5060405162004c3d38038062004c3d83398181016040528101906200007e919062000384565b6200009e620000926200013e60201b60201c565b6200014660201b60201c565b8173ffffffffffffffffffffffffffffffffffffffff1660a08173ffffffffffffffffffffffffffffffffffffffff1681525050806001600060a05173ffffffffffffffffffffffffffffffffffffffff1673ffffffffffffffffffffffffffffffffffffffff168152602001908152602001600020819055506200013560a05160026200020a60201b620016c31790919060201c565b505050620003cb565b600033905090565b60008060009054906101000a900473ffffffffffffffffffffffffffffffffffffffff169050816000806101000a81548173ffffffffffffffffffffffffffffffffffffffff021916908373ffffffffffffffffffffffffffffffffffffffff1602179055508173ffffffffffffffffffffffffffffffffffffffff168173ffffffffffffffffffffffffffffffffffffffff167f8be0079c531659141344cd1fd0a4f28419497f9722a3daafe3b4186f6b6457e060405160405180910390a35050565b60006200023a836000018373ffffffffffffffffffffffffffffffffffffffff1660001b6200024260201b60201c565b905092915050565b6000620002568383620002bc60201b60201c565b620002b1578260000182908060018154018082558091505060019003906000526020600020016000909190919091505582600001805490508360010160008481526020019081526020016000208190555060019050620002b6565b600090505b92915050565b600080836001016000848152602001908152602001600020541415905092915050565b600080fd5b600073ffffffffffffffffffffffffffffffffffffffff82169050919050565b60006200031182620002e4565b9050919050565b620003238162000304565b81146200032f57600080fd5b50565b600081519050620003438162000318565b92915050565b6000819050919050565b6200035e8162000349565b81146200036a57600080fd5b50565b6000815190506200037e8162000353565b92915050565b600080604083850312156200039e576200039d620002df565b5b6000620003ae8582860162000332565b9250506020620003c1858286016200036d565b9150509250929050565b60805160a05161482c6200041160003960005050600081816106e30152818161074b0152818161087c0152818161091801528181610d590152611497015261482c6000f3fe6080604052600436106100e15760003560e01c8063715018a61161007f578063bbd1e12211610059578063bbd1e122146102e9578063bd44cb3914610312578063bed64c2f1461033b578063f2fde38b14610366576100e8565b8063715018a614610269578063759eee10146102805780638da5cb5b146102be576100e8565b8063220df989116100bb578063220df989146101c15780633ccfd60b146101fe578063521eb273146102155780636923d49214610240576100e8565b80630aa67e7f1461013257806310d1e85c1461015b57806321d0942614610184576100e8565b366100e857005b3480156100f457600080fd5b50600080600080600036600490809261010f93929190612dc8565b81019061011c9190612fe7565b93509350935093506101308484848461038f565b005b34801561013e57600080fd5b50610159600480360381019061015491906130a8565b610582565b005b34801561016757600080fd5b50610182600480360381019061017d91906130e8565b61038f565b005b34801561019057600080fd5b506101ab60048036038101906101a6919061316b565b61069e565b6040516101b891906131b3565b60405180910390f35b3480156101cd57600080fd5b506101e860048036038101906101e3919061316b565b6106bb565b6040516101f591906131dd565b60405180910390f35b34801561020a57600080fd5b506102136106d3565b005b34801561022157600080fd5b5061022a610916565b6040516102379190613207565b60405180910390f35b34801561024c57600080fd5b50610267600480360381019061026291906130a8565b61093a565b005b34801561027557600080fd5b5061027e6109fe565b005b34801561028c57600080fd5b506102a760048036038101906102a29190613222565b610a86565b6040516102b5929190613262565b60405180910390f35b3480156102ca57600080fd5b506102d3610c0f565b6040516102e09190613207565b60405180910390f35b3480156102f557600080fd5b50610310600480360381019061030b919061316b565b610c38565b005b34801561031e57600080fd5b50610339600480360381019061033491906132b7565b610e37565b005b34801561034757600080fd5b506103506114ed565b60405161035d91906133f0565b60405180910390f35b34801561037257600080fd5b5061038d6004803603810190610388919061316b565b6115cc565b005b3073ffffffffffffffffffffffffffffffffffffffff168473ffffffffffffffffffffffffffffffffffffffff16146103fd576040517f08c379a00000000000000000000000000000000000000000000000000000000081526004016103f49061346f565b60405180910390fd5b600080841161040c578261040e565b835b90506000828060200190518101906104269190613587565b905061045b816020015183836060015173ffffffffffffffffffffffffffffffffffffffff166116f39092919063ffffffff16565b60008082604001516104735760008360c0015161047b565b8260c0015160005b91509150826020015173ffffffffffffffffffffffffffffffffffffffff1663022c0d9f838330600067ffffffffffffffff8111156104bd576104bc612ebc565b5b6040519080825280601f01601f1916602001820160405280156104ef5781602001600182028036833780820191505090505b506040518563ffffffff1660e01b815260040161050f949392919061363c565b600060405180830381600087803b15801561052957600080fd5b505af115801561053d573d6000803e3d6000fd5b5050505061057883600001518460a00151856080015173ffffffffffffffffffffffffffffffffffffffff166116f39092919063ffffffff16565b5050505050505050565b61058a611779565b73ffffffffffffffffffffffffffffffffffffffff166105a8610c0f565b73ffffffffffffffffffffffffffffffffffffffff16146105fe576040517f08c379a00000000000000000000000000000000000000000000000000000000081526004016105f5906136d4565b60405180910390fd5b6106128260026116c390919063ffffffff16565b5080600160008473ffffffffffffffffffffffffffffffffffffffff1673ffffffffffffffffffffffffffffffffffffffff168152602001908152602001600020819055508173ffffffffffffffffffffffffffffffffffffffff167ffa1388d6e7328e9c711a539b0addfc27de8bfb6f5924cce26f80f41023b1525360405160405180910390a25050565b60006106b482600261178190919063ffffffff16565b9050919050565b60016020528060005260406000206000915090505481565b600047905060008111156107ad577f000000000000000000000000000000000000000000000000000000000000000073ffffffffffffffffffffffffffffffffffffffff166108fc829081150290604051600060405180830381858888f19350505050158015610747573d6000803e3d6000fd5b50807f000000000000000000000000000000000000000000000000000000000000000073ffffffffffffffffffffffffffffffffffffffff167f7084f5476618d8e60b11ef0d7d3f06914655adb8793e28ff7f018d4c76d505d560405160405180910390a35b60005b6107ba60026117b1565b8110156109125760006107d78260026117c690919063ffffffff16565b90508073ffffffffffffffffffffffffffffffffffffffff166370a08231306040518263ffffffff1660e01b81526004016108129190613207565b602060405180830381865afa15801561082f573d6000803e3d6000fd5b505050506040513d601f19601f8201168201806040525081019061085391906136f4565b925060008311156108fe578073ffffffffffffffffffffffffffffffffffffffff1663a9059cbb7f0000000000000000000000000000000000000000000000000000000000000000856040518363ffffffff1660e01b81526004016108b9929190613721565b6020604051808303816000875af11580156108d8573d6000803e3d6000fd5b505050506040513d601f19601f820116820180604052508101906108fc919061374a565b505b50808061090a906137a6565b9150506107b0565b5050565b7f000000000000000000000000000000000000000000000000000000000000000081565b610942611779565b73ffffffffffffffffffffffffffffffffffffffff16610960610c0f565b73ffffffffffffffffffffffffffffffffffffffff16146109b6576040517f08c379a00000000000000000000000000000000000000000000000000000000081526004016109ad906136d4565b60405180910390fd5b80600160008473ffffffffffffffffffffffffffffffffffffffff1673ffffffffffffffffffffffffffffffffffffffff168152602001908152602001600020819055505050565b610a06611779565b73ffffffffffffffffffffffffffffffffffffffff16610a24610c0f565b73ffffffffffffffffffffffffffffffffffffffff1614610a7a576040517f08c379a0000000000000000000000000000000000000000000000000000000008152600401610a71906136d4565b60405180910390fd5b610a8460006117e0565b565b6000806000610a9585856118a4565b5050905080610b12578473ffffffffffffffffffffffffffffffffffffffff1663d21220a76040518163ffffffff1660e01b8152600401602060405180830381865afa158015610ae9573d6000803e3d6000fd5b505050506040513d601f19601f82011682018060405250810190610b0d91906137ee565b610b82565b8473ffffffffffffffffffffffffffffffffffffffff16630dfe16816040518163ffffffff1660e01b8152600401602060405180830381865afa158015610b5d573d6000803e3d6000fd5b505050506040513d601f19601f82011682018060405250810190610b8191906137ee565b5b91506000610b91868684611cb5565b925050506000610bb38260000151836040015184602001518560600151611f1b565b90506000610bca8284600001518560200151612291565b90506000610be183856060015186604001516123a4565b905081811015610bf45760009650610c03565b8181610c00919061381b565b96505b50505050509250929050565b60008060009054906101000a900473ffffffffffffffffffffffffffffffffffffffff16905090565b610c40611779565b73ffffffffffffffffffffffffffffffffffffffff16610c5e610c0f565b73ffffffffffffffffffffffffffffffffffffffff1614610cb4576040517f08c379a0000000000000000000000000000000000000000000000000000000008152600401610cab906136d4565b60405180910390fd5b60008173ffffffffffffffffffffffffffffffffffffffff166370a08231306040518263ffffffff1660e01b8152600401610cef9190613207565b602060405180830381865afa158015610d0c573d6000803e3d6000fd5b505050506040513d601f19601f82011682018060405250810190610d3091906136f4565b90506000811115610ddb578173ffffffffffffffffffffffffffffffffffffffff1663a9059cbb7f0000000000000000000000000000000000000000000000000000000000000000836040518363ffffffff1660e01b8152600401610d96929190613721565b6020604051808303816000875af1158015610db5573d6000803e3d6000fd5b505050506040513d601f19601f82011682018060405250810190610dd9919061374a565b505b610def8260026124aa90919063ffffffff16565b508173ffffffffffffffffffffffffffffffffffffffff167fdc23a849435922f20a9732eb85192a9d0c1cb34725ebe6d7de0be10212ba02fb60405160405180910390a25050565b6000806000808615610f84578873ffffffffffffffffffffffffffffffffffffffff16630902f1ac6040518163ffffffff1660e01b8152600401606060405180830381865afa158015610e8e573d6000803e3d6000fd5b505050506040513d601f19601f82011682018060405250810190610eb291906138d1565b826dffffffffffffffffffffffffffff169250816dffffffffffffffffffffffffffff1691505080945081955050508773ffffffffffffffffffffffffffffffffffffffff16630902f1ac6040518163ffffffff1660e01b8152600401606060405180830381865afa158015610f2c573d6000803e3d6000fd5b505050506040513d601f19601f82011682018060405250810190610f5091906138d1565b826dffffffffffffffffffffffffffff169250816dffffffffffffffffffffffffffff1691505080925081935050506110c1565b8873ffffffffffffffffffffffffffffffffffffffff16630902f1ac6040518163ffffffff1660e01b8152600401606060405180830381865afa158015610fcf573d6000803e3d6000fd5b505050506040513d601f19601f82011682018060405250810190610ff391906138d1565b826dffffffffffffffffffffffffffff169250816dffffffffffffffffffffffffffff1691505080955081945050508773ffffffffffffffffffffffffffffffffffffffff16630902f1ac6040518163ffffffff1660e01b8152600401606060405180830381865afa15801561106d573d6000803e3d6000fd5b505050506040513d601f19601f8201168201806040525081019061109191906138d1565b826dffffffffffffffffffffffffffff169250816dffffffffffffffffffffffffffff1691505080935081925050505b60006110cf85848685611f1b565b9050600081036110e35750505050506114e6565b60006110f0828787612291565b905060006110ff8385876123a4565b9050808211806111585750600160008a73ffffffffffffffffffffffffffffffffffffffff1673ffffffffffffffffffffffffffffffffffffffff168152602001908152602001600020548282611156919061381b565b105b1561116957505050505050506114e6565b611171612ce2565b8c816000019073ffffffffffffffffffffffffffffffffffffffff16908173ffffffffffffffffffffffffffffffffffffffff16815250508b816020019073ffffffffffffffffffffffffffffffffffffffff16908173ffffffffffffffffffffffffffffffffffffffff16815250508a81604001901515908115158152505088816060019073ffffffffffffffffffffffffffffffffffffffff16908173ffffffffffffffffffffffffffffffffffffffff168152505089816080019073ffffffffffffffffffffffffffffffffffffffff16908173ffffffffffffffffffffffffffffffffffffffff1681525050828160a0018181525050818160c001818152505060008160405160200161128891906139d0565b60405160208183030381529060405290508b1561131a57816000015173ffffffffffffffffffffffffffffffffffffffff1663022c0d9f60008730856040518563ffffffff1660e01b81526004016112e3949392919061363c565b600060405180830381600087803b1580156112fd57600080fd5b505af1158015611311573d6000803e3d6000fd5b50505050611391565b816000015173ffffffffffffffffffffffffffffffffffffffff1663022c0d9f86600030856040518563ffffffff1660e01b815260040161135e949392919061363c565b600060405180830381600087803b15801561137857600080fd5b505af115801561138c573d6000803e3d6000fd5b505050505b505060008973ffffffffffffffffffffffffffffffffffffffff166370a08231306040518263ffffffff1660e01b81526004016113ce9190613207565b602060405180830381865afa1580156113eb573d6000803e3d6000fd5b505050506040513d601f19601f8201168201806040525081019061140f91906136f4565b9050600160008b73ffffffffffffffffffffffffffffffffffffffff1673ffffffffffffffffffffffffffffffffffffffff168152602001908152602001600020548111611492576040517f08c379a000000000000000000000000000000000000000000000000000000000815260040161148990613a37565b60405180910390fd5b6114dd7f0000000000000000000000000000000000000000000000000000000000000000828c73ffffffffffffffffffffffffffffffffffffffff166116f39092919063ffffffff16565b50505050505050505b5050505050565b606060006114fb60026117b1565b90508067ffffffffffffffff81111561151757611516612ebc565b5b6040519080825280602002602001820160405280156115455781602001602082028036833780820191505090505b50915060005b818110156115c7576115678160026117c690919063ffffffff16565b83828151811061157a57611579613a57565b5b602002602001019073ffffffffffffffffffffffffffffffffffffffff16908173ffffffffffffffffffffffffffffffffffffffff168152505080806115bf906137a6565b91505061154b565b505090565b6115d4611779565b73ffffffffffffffffffffffffffffffffffffffff166115f2610c0f565b73ffffffffffffffffffffffffffffffffffffffff1614611648576040517f08c379a000000000000000000000000000000000000000000000000000000000815260040161163f906136d4565b60405180910390fd5b600073ffffffffffffffffffffffffffffffffffffffff168173ffffffffffffffffffffffffffffffffffffffff16036116b7576040517f08c379a00000000000000000000000000000000000000000000000000000000081526004016116ae90613af8565b60405180910390fd5b6116c0816117e0565b50565b60006116eb836000018373ffffffffffffffffffffffffffffffffffffffff1660001b6124da565b905092915050565b6117748363a9059cbb60e01b8484604051602401611712929190613721565b604051602081830303815290604052907bffffffffffffffffffffffffffffffffffffffffffffffffffffffff19166020820180517bffffffffffffffffffffffffffffffffffffffffffffffffffffffff838183161783525050505061254a565b505050565b600033905090565b60006117a9836000018373ffffffffffffffffffffffffffffffffffffffff1660001b612611565b905092915050565b60006117bf82600001612634565b9050919050565b60006117d58360000183612645565b60001c905092915050565b60008060009054906101000a900473ffffffffffffffffffffffffffffffffffffffff169050816000806101000a81548173ffffffffffffffffffffffffffffffffffffffff021916908373ffffffffffffffffffffffffffffffffffffffff1602179055508173ffffffffffffffffffffffffffffffffffffffff168173ffffffffffffffffffffffffffffffffffffffff167f8be0079c531659141344cd1fd0a4f28419497f9722a3daafe3b4186f6b6457e060405160405180910390a35050565b60008060008373ffffffffffffffffffffffffffffffffffffffff168573ffffffffffffffffffffffffffffffffffffffff1603611917576040517f08c379a000000000000000000000000000000000000000000000000000000000815260040161190e90613b64565b60405180910390fd5b6000808673ffffffffffffffffffffffffffffffffffffffff16630dfe16816040518163ffffffff1660e01b8152600401602060405180830381865afa158015611965573d6000803e3d6000fd5b505050506040513d601f19601f8201168201806040525081019061198991906137ee565b8773ffffffffffffffffffffffffffffffffffffffff1663d21220a76040518163ffffffff1660e01b8152600401602060405180830381865afa1580156119d4573d6000803e3d6000fd5b505050506040513d601f19601f820116820180604052508101906119f891906137ee565b915091506000808773ffffffffffffffffffffffffffffffffffffffff16630dfe16816040518163ffffffff1660e01b8152600401602060405180830381865afa158015611a4a573d6000803e3d6000fd5b505050506040513d601f19601f82011682018060405250810190611a6e91906137ee565b8873ffffffffffffffffffffffffffffffffffffffff1663d21220a76040518163ffffffff1660e01b8152600401602060405180830381865afa158015611ab9573d6000803e3d6000fd5b505050506040513d601f19601f82011682018060405250810190611add91906137ee565b915091508273ffffffffffffffffffffffffffffffffffffffff168473ffffffffffffffffffffffffffffffffffffffff16108015611b4757508073ffffffffffffffffffffffffffffffffffffffff168273ffffffffffffffffffffffffffffffffffffffff16105b611b86576040517f08c379a0000000000000000000000000000000000000000000000000000000008152600401611b7d90613bd0565b60405180910390fd5b8173ffffffffffffffffffffffffffffffffffffffff168473ffffffffffffffffffffffffffffffffffffffff16148015611bec57508073ffffffffffffffffffffffffffffffffffffffff168373ffffffffffffffffffffffffffffffffffffffff16145b611c2b576040517f08c379a0000000000000000000000000000000000000000000000000000000008152600401611c2290613c3c565b60405180910390fd5b611c348461069e565b80611c445750611c438361069e565b5b611c83576040517f08c379a0000000000000000000000000000000000000000000000000000000008152600401611c7a90613ca8565b60405180910390fd5b611c8c8461069e565b611c995760008385611c9e565b600184845b809750819850829950505050505050509250925092565b600080611cc0612d79565b6000808773ffffffffffffffffffffffffffffffffffffffff16630902f1ac6040518163ffffffff1660e01b8152600401606060405180830381865afa158015611d0e573d6000803e3d6000fd5b505050506040513d601f19601f82011682018060405250810190611d3291906138d1565b506dffffffffffffffffffffffffffff1691506dffffffffffffffffffffffffffff1691506000808873ffffffffffffffffffffffffffffffffffffffff16630902f1ac6040518163ffffffff1660e01b8152600401606060405180830381865afa158015611da5573d6000803e3d6000fd5b505050506040513d601f19601f82011682018060405250810190611dc991906138d1565b506dffffffffffffffffffffffffffff1691506dffffffffffffffffffffffffffff16915060008089611e3157611e1186611e0387612670565b6126a890919063ffffffff16565b611e2c85611e1e86612670565b6126a890919063ffffffff16565b611e68565b611e4c85611e3e88612670565b6126a890919063ffffffff16565b611e6784611e5987612670565b6126a890919063ffffffff16565b5b91509150611e7f81836126dd90919063ffffffff16565b15611eca578b8b809950819a50505089611e9c5784868486611ea1565b858585855b8a6000018b6020018c6040018d6060018481525084815250848152508481525050505050611f0c565b8a8c809950819a50505089611ee25782848688611ee7565b838387875b8a6000018b6020018c6040018d60600184815250848152508481525084815250505050505b50505050505093509350939050565b600080848610611f2b5784611f2d565b855b90506000838510611f3e5783611f40565b845b90506000818310611f515781611f53565b825b9050600069d3c21bcecceda1000000821115611f7a5768056bc75e2d631000009050612125565b69152d02c7e14af6800000821115611f9c57678ac7230489e800009050612124565b69021e19e0c9bab2400000821115611fbe57670de0b6b3a76400009050612123565b683635c9adc5dea00000821115611fdf5767016345785d8a00009050612122565b68056bc75e2d63100000821115611fff57662386f26fc100009050612121565b678ac7230489e8000082111561201e5766038d7ea4c680009050612120565b670de0b6b3a764000082111561203c57655af3107a4000905061211f565b67016345785d8a000082111561205a576509184e72a000905061211e565b662386f26fc100008211156120765764e8d4a51000905061211d565b66038d7ea4c680008211156120925764174876e800905061211c565b655af3107a40008211156120ad576402540be400905061211b565b6509184e72a0008211156120c757633b9aca00905061211a565b64e8d4a510008211156120e0576305f5e1009050612119565b64174876e8008211156120f857629896809050612118565b6402540be40082111561211057620f42409050612117565b620186a090505b5b5b5b5b5b5b5b5b5b5b5b5b5b5b600080600080848d6121379190613cf7565b858d6121439190613cf7565b868d61214f9190613cf7565b878d61215b9190613cf7565b9350935093509350600081846121719190613d32565b838661217d9190613d32565b6121879190613e49565b9050600084866121979190613edd565b838560026121a59190613d32565b6121af9190613d32565b6121b99190613d32565b9050600084866121c99190613d32565b84886121d59190613d32565b6121df9190613e49565b84866121eb9190613d32565b6121f59190613d32565b90506000806122058585856126f3565b9150915060008213801561221857508682125b801561222357508582125b80612244575060008113801561223857508681125b801561224357508581125b5b1561227c57868212801561225757508582125b61226c5789816122679190613f71565b612279565b89826122789190613f71565b5b9d505b50505050505050505050505050949350505050565b60008084116122d5576040517f08c379a00000000000000000000000000000000000000000000000000000000081526004016122cc9061403d565b60405180910390fd5b6000831180156122e55750600082115b612324576040517f08c379a000000000000000000000000000000000000000000000000000000000815260040161231b906140cf565b60405180910390fd5b600061234d6103e861233f87876127df90919063ffffffff16565b6127df90919063ffffffff16565b905060006123786103e561236a88876127f590919063ffffffff16565b6127df90919063ffffffff16565b90506123996001828461238b9190613cf7565b61280b90919063ffffffff16565b925050509392505050565b60008084116123e8576040517f08c379a00000000000000000000000000000000000000000000000000000000081526004016123df90614161565b60405180910390fd5b6000831180156123f85750600082115b612437576040517f08c379a000000000000000000000000000000000000000000000000000000000815260040161242e906140cf565b60405180910390fd5b600061244e6103e5866127df90919063ffffffff16565b9050600061246584836127df90919063ffffffff16565b90506000612490836124826103e8896127df90919063ffffffff16565b61280b90919063ffffffff16565b9050808261249e9190613cf7565b93505050509392505050565b60006124d2836000018373ffffffffffffffffffffffffffffffffffffffff1660001b612821565b905092915050565b60006124e68383612611565b61253f578260000182908060018154018082558091505060019003906000526020600020016000909190919091505582600001805490508360010160008481526020019081526020016000208190555060019050612544565b600090505b92915050565b60006125ac826040518060400160405280602081526020017f5361666545524332303a206c6f772d6c6576656c2063616c6c206661696c65648152508573ffffffffffffffffffffffffffffffffffffffff166129359092919063ffffffff16565b905060008151111561260c57808060200190518101906125cc919061374a565b61260b576040517f08c379a0000000000000000000000000000000000000000000000000000000008152600401612602906141f3565b60405180910390fd5b5b505050565b600080836001016000848152602001908152602001600020541415905092915050565b600081600001805490509050919050565b600082600001828154811061265d5761265c613a57565b5b9060005260206000200154905092915050565b612678612da1565b604051806020016040528061269e670de0b6b3a76400008561294d90919063ffffffff16565b8152509050919050565b6126b0612da1565b60405180602001604052806126d28486600001516129c790919063ffffffff16565b815250905092915050565b6000806126ea8484612a11565b14905092915050565b6000806000838660046127069190613d32565b6127109190613d32565b60028661271d919061436f565b6127279190613e49565b90506000811361276c576040517f08c379a000000000000000000000000000000000000000000000000000000000815260040161276390614427565b60405180910390fd5b600061277782612a50565b90508660026127869190613d32565b818761279190614447565b61279b9190613edd565b6127a5919061448f565b93508660026127b49190613d32565b81876127bf90614447565b6127c99190613e49565b6127d3919061448f565b92505050935093915050565b600081836127ed9190613f71565b905092915050565b60008183612803919061381b565b905092915050565b6000818361281991906144f9565b905092915050565b60008083600101600084815260200190815260200160002054905060008114612929576000600182612853919061381b565b905060006001866000018054905061286b919061381b565b90508181146128da57600086600001828154811061288c5761288b613a57565b5b90600052602060002001549050808760000184815481106128b0576128af613a57565b5b90600052602060002001819055508387600101600083815260200190815260200160002081905550505b856000018054806128ee576128ed61454f565b5b60019003818190600052602060002001600090559055856001016000868152602001908152602001600020600090556001935050505061292f565b60009150505b92915050565b60606129448484600085612ae1565b90509392505050565b600080830361295f57600090506129c1565b6000828461296d9190613f71565b905082848261297c9190613cf7565b146129bc576040517f08c379a00000000000000000000000000000000000000000000000000000000081526004016129b3906145f0565b60405180910390fd5b809150505b92915050565b6000612a0983836040518060400160405280601a81526020017f536166654d6174683a206469766973696f6e206279207a65726f000000000000815250612bf5565b905092915050565b60008160000151836000015103612a2b5760019050612a4a565b8160000151836000015111612a41576000612a44565b60025b60ff1690505b92915050565b600060018211612a6357612a62614610565b5b6000620f424083612a749190613f71565b9050600081905081925060005b600115612ac95760028483612a969190613cf7565b85612aa191906144f9565b612aab9190613cf7565b90506103e88185612abc919061381b565b10612ac957809350612a81565b6103e884612ad79190613cf7565b9350505050919050565b606082471015612b26576040517f08c379a0000000000000000000000000000000000000000000000000000000008152600401612b1d906146b1565b60405180910390fd5b612b2f85612c58565b612b6e576040517f08c379a0000000000000000000000000000000000000000000000000000000008152600401612b659061471d565b60405180910390fd5b6000808673ffffffffffffffffffffffffffffffffffffffff168587604051612b979190614779565b60006040518083038185875af1925050503d8060008114612bd4576040519150601f19603f3d011682016040523d82523d6000602084013e612bd9565b606091505b5091509150612be9828286612c7b565b92505050949350505050565b60008083118290612c3c576040517f08c379a0000000000000000000000000000000000000000000000000000000008152600401612c3391906147d4565b60405180910390fd5b5060008385612c4b9190613cf7565b9050809150509392505050565b6000808273ffffffffffffffffffffffffffffffffffffffff163b119050919050565b60608315612c8b57829050612cdb565b600083511115612c9e5782518084602001fd5b816040517f08c379a0000000000000000000000000000000000000000000000000000000008152600401612cd291906147d4565b60405180910390fd5b9392505050565b6040518060e00160405280600073ffffffffffffffffffffffffffffffffffffffff168152602001600073ffffffffffffffffffffffffffffffffffffffff168152602001600015158152602001600073ffffffffffffffffffffffffffffffffffffffff168152602001600073ffffffffffffffffffffffffffffffffffffffff16815260200160008152602001600081525090565b6040518060800160405280600081526020016000815260200160008152602001600081525090565b6040518060200160405280600081525090565b6000604051905090565b600080fd5b600080fd5b60008085851115612ddc57612ddb612dbe565b5b83861115612ded57612dec612dc3565b5b6001850283019150848603905094509492505050565b600080fd5b600080fd5b600073ffffffffffffffffffffffffffffffffffffffff82169050919050565b6000612e3882612e0d565b9050919050565b612e4881612e2d565b8114612e5357600080fd5b50565b600081359050612e6581612e3f565b92915050565b6000819050919050565b612e7e81612e6b565b8114612e8957600080fd5b50565b600081359050612e9b81612e75565b92915050565b600080fd5b600080fd5b6000601f19601f8301169050919050565b7f4e487b7100000000000000000000000000000000000000000000000000000000600052604160045260246000fd5b612ef482612eab565b810181811067ffffffffffffffff82111715612f1357612f12612ebc565b5b80604052505050565b6000612f26612db4565b9050612f328282612eeb565b919050565b600067ffffffffffffffff821115612f5257612f51612ebc565b5b612f5b82612eab565b9050602081019050919050565b82818337600083830152505050565b6000612f8a612f8584612f37565b612f1c565b905082815260208101848484011115612fa657612fa5612ea6565b5b612fb1848285612f68565b509392505050565b600082601f830112612fce57612fcd612ea1565b5b8135612fde848260208601612f77565b91505092915050565b6000806000806080858703121561300157613000612e03565b5b600061300f87828801612e56565b945050602061302087828801612e8c565b935050604061303187828801612e8c565b925050606085013567ffffffffffffffff81111561305257613051612e08565b5b61305e87828801612fb9565b91505092959194509250565b600061307582612e0d565b9050919050565b6130858161306a565b811461309057600080fd5b50565b6000813590506130a28161307c565b92915050565b600080604083850312156130bf576130be612e03565b5b60006130cd85828601613093565b92505060206130de85828601612e8c565b9150509250929050565b6000806000806080858703121561310257613101612e03565b5b600061311087828801613093565b945050602061312187828801612e8c565b935050604061313287828801612e8c565b925050606085013567ffffffffffffffff81111561315357613152612e08565b5b61315f87828801612fb9565b91505092959194509250565b60006020828403121561318157613180612e03565b5b600061318f84828501613093565b91505092915050565b60008115159050919050565b6131ad81613198565b82525050565b60006020820190506131c860008301846131a4565b92915050565b6131d781612e6b565b82525050565b60006020820190506131f260008301846131ce565b92915050565b6132018161306a565b82525050565b600060208201905061321c60008301846131f8565b92915050565b6000806040838503121561323957613238612e03565b5b600061324785828601613093565b925050602061325885828601613093565b9150509250929050565b600060408201905061327760008301856131ce565b61328460208301846131f8565b9392505050565b61329481613198565b811461329f57600080fd5b50565b6000813590506132b18161328b565b92915050565b600080600080600060a086880312156132d3576132d2612e03565b5b60006132e188828901613093565b95505060206132f288828901613093565b9450506040613303888289016132a2565b935050606061331488828901613093565b925050608061332588828901613093565b9150509295509295909350565b600081519050919050565b600082825260208201905092915050565b6000819050602082019050919050565b6133678161306a565b82525050565b6000613379838361335e565b60208301905092915050565b6000602082019050919050565b600061339d82613332565b6133a7818561333d565b93506133b28361334e565b8060005b838110156133e35781516133ca888261336d565b97506133d583613385565b9250506001810190506133b6565b5085935050505092915050565b6000602082019050818103600083015261340a8184613392565b905092915050565b600082825260208201905092915050565b7f4e6f742066726f6d207468697320636f6e747261637400000000000000000000600082015250565b6000613459601683613412565b915061346482613423565b602082019050919050565b600060208201905081810360008301526134888161344c565b9050919050565b600080fd5b6000815190506134a38161307c565b92915050565b6000815190506134b88161328b565b92915050565b6000815190506134cd81612e75565b92915050565b600060e082840312156134e9576134e861348f565b5b6134f360e0612f1c565b9050600061350384828501613494565b600083015250602061351784828501613494565b602083015250604061352b848285016134a9565b604083015250606061353f84828501613494565b606083015250608061355384828501613494565b60808301525060a0613567848285016134be565b60a08301525060c061357b848285016134be565b60c08301525092915050565b600060e0828403121561359d5761359c612e03565b5b60006135ab848285016134d3565b91505092915050565b600081519050919050565b600082825260208201905092915050565b60005b838110156135ee5780820151818401526020810190506135d3565b838111156135fd576000848401525b50505050565b600061360e826135b4565b61361881856135bf565b93506136288185602086016135d0565b61363181612eab565b840191505092915050565b600060808201905061365160008301876131ce565b61365e60208301866131ce565b61366b60408301856131f8565b818103606083015261367d8184613603565b905095945050505050565b7f4f776e61626c653a2063616c6c6572206973206e6f7420746865206f776e6572600082015250565b60006136be602083613412565b91506136c982613688565b602082019050919050565b600060208201905081810360008301526136ed816136b1565b9050919050565b60006020828403121561370a57613709612e03565b5b6000613718848285016134be565b91505092915050565b600060408201905061373660008301856131f8565b61374360208301846131ce565b9392505050565b6000602082840312156137605761375f612e03565b5b600061376e848285016134a9565b91505092915050565b7f4e487b7100000000000000000000000000000000000000000000000000000000600052601160045260246000fd5b60006137b182612e6b565b91507fffffffffffffffffffffffffffffffffffffffffffffffffffffffffffffffff82036137e3576137e2613777565b5b600182019050919050565b60006020828403121561380457613803612e03565b5b600061381284828501613494565b91505092915050565b600061382682612e6b565b915061383183612e6b565b92508282101561384457613843613777565b5b828203905092915050565b60006dffffffffffffffffffffffffffff82169050919050565b6138728161384f565b811461387d57600080fd5b50565b60008151905061388f81613869565b92915050565b600063ffffffff82169050919050565b6138ae81613895565b81146138b957600080fd5b50565b6000815190506138cb816138a5565b92915050565b6000806000606084860312156138ea576138e9612e03565b5b60006138f886828701613880565b935050602061390986828701613880565b925050604061391a868287016138bc565b9150509250925092565b61392d81613198565b82525050565b61393c81612e6b565b82525050565b60e082016000820151613958600085018261335e565b50602082015161396b602085018261335e565b50604082015161397e6040850182613924565b506060820151613991606085018261335e565b5060808201516139a4608085018261335e565b5060a08201516139b760a0850182613933565b5060c08201516139ca60c0850182613933565b50505050565b600060e0820190506139e56000830184613942565b92915050565b7f4c6f73696e67206d6f6e65790000000000000000000000000000000000000000600082015250565b6000613a21600c83613412565b9150613a2c826139eb565b602082019050919050565b60006020820190508181036000830152613a5081613a14565b9050919050565b7f4e487b7100000000000000000000000000000000000000000000000000000000600052603260045260246000fd5b7f4f776e61626c653a206e6577206f776e657220697320746865207a65726f206160008201527f6464726573730000000000000000000000000000000000000000000000000000602082015250565b6000613ae2602683613412565b9150613aed82613a86565b604082019050919050565b60006020820190508181036000830152613b1181613ad5565b9050919050565b7f53616d6520706169722061646472657373000000000000000000000000000000600082015250565b6000613b4e601183613412565b9150613b5982613b18565b602082019050919050565b60006020820190508181036000830152613b7d81613b41565b9050919050565b7f4e6f6e207374616e6461726420756e697377617020414d4d2070616972000000600082015250565b6000613bba601d83613412565b9150613bc582613b84565b602082019050919050565b60006020820190508181036000830152613be981613bad565b9050919050565b7f526571756972652073616d6520746f6b656e2070616972000000000000000000600082015250565b6000613c26601783613412565b9150613c3182613bf0565b602082019050919050565b60006020820190508181036000830152613c5581613c19565b9050919050565b7f4e6f206261736520746f6b656e20696e20706169720000000000000000000000600082015250565b6000613c92601583613412565b9150613c9d82613c5c565b602082019050919050565b60006020820190508181036000830152613cc181613c85565b9050919050565b7f4e487b7100000000000000000000000000000000000000000000000000000000600052601260045260246000fd5b6000613d0282612e6b565b9150613d0d83612e6b565b925082613d1d57613d1c613cc8565b5b828204905092915050565b6000819050919050565b6000613d3d82613d28565b9150613d4883613d28565b9250827f7fffffffffffffffffffffffffffffffffffffffffffffffffffffffffffffff0482116000841360008413161615613d8757613d86613777565b5b817f80000000000000000000000000000000000000000000000000000000000000000583126000841260008413161615613dc457613dc3613777565b5b827f80000000000000000000000000000000000000000000000000000000000000000582126000841360008412161615613e0157613e00613777565b5b827f7fffffffffffffffffffffffffffffffffffffffffffffffffffffffffffffff0582126000841260008412161615613e3e57613e3d613777565b5b828202905092915050565b6000613e5482613d28565b9150613e5f83613d28565b9250827f800000000000000000000000000000000000000000000000000000000000000001821260008412151615613e9a57613e99613777565b5b827f7fffffffffffffffffffffffffffffffffffffffffffffffffffffffffffffff018213600084121615613ed257613ed1613777565b5b828203905092915050565b6000613ee882613d28565b9150613ef383613d28565b9250817f7fffffffffffffffffffffffffffffffffffffffffffffffffffffffffffffff03831360008312151615613f2e57613f2d613777565b5b817f8000000000000000000000000000000000000000000000000000000000000000038312600083121615613f6657613f65613777565b5b828201905092915050565b6000613f7c82612e6b565b9150613f8783612e6b565b9250817fffffffffffffffffffffffffffffffffffffffffffffffffffffffffffffffff0483118215151615613fc057613fbf613777565b5b828202905092915050565b7f556e697377617056324c6962726172793a20494e53554646494349454e545f4f60008201527f55545055545f414d4f554e540000000000000000000000000000000000000000602082015250565b6000614027602c83613412565b915061403282613fcb565b604082019050919050565b600060208201905081810360008301526140568161401a565b9050919050565b7f556e697377617056324c6962726172793a20494e53554646494349454e545f4c60008201527f4951554944495459000000000000000000000000000000000000000000000000602082015250565b60006140b9602883613412565b91506140c48261405d565b604082019050919050565b600060208201905081810360008301526140e8816140ac565b9050919050565b7f556e697377617056324c6962726172793a20494e53554646494349454e545f4960008201527f4e5055545f414d4f554e54000000000000000000000000000000000000000000602082015250565b600061414b602b83613412565b9150614156826140ef565b604082019050919050565b6000602082019050818103600083015261417a8161413e565b9050919050565b7f5361666545524332303a204552433230206f7065726174696f6e20646964206e60008201527f6f74207375636365656400000000000000000000000000000000000000000000602082015250565b60006141dd602a83613412565b91506141e882614181565b604082019050919050565b6000602082019050818103600083015261420c816141d0565b9050919050565b60008160011c9050919050565b6000808291508390505b600185111561426a5780860481111561424657614245613777565b5b60018516156142555780820291505b808102905061426385614213565b945061422a565b94509492505050565b6000826000811461428b57600181146142955761429e565b600191505061435a565b8291505061435a565b50816142ad576000905061435a565b6001905060008213600181146142ca57600081146142e2576142f6565b8286048311156142dd576142dc613777565b5b6142f6565b8286058312156142f5576142f4613777565b5b5b506001831615614304578190505b818202915061431283614213565b925061432085848484614220565b92509050818504811160008213161561433c5761433b613777565b5b818405811260008212161561435457614353613777565b5b81810290505b949350505050565b600060ff82169050919050565b600061437a82613d28565b915061438583614362565b92506143d37f7fffffffffffffffffffffffffffffffffffffffffffffffffffffffffffffff7f80000000000000000000000000000000000000000000000000000000000000008585614273565b905092915050565b7f436f6d706c6578206e756d626572000000000000000000000000000000000000600082015250565b6000614411600e83613412565b915061441c826143db565b602082019050919050565b6000602082019050818103600083015261444081614404565b9050919050565b600061445282613d28565b91507f8000000000000000000000000000000000000000000000000000000000000000820361448457614483613777565b5b816000039050919050565b600061449a82613d28565b91506144a583613d28565b9250826144b5576144b4613cc8565b5b600160000383147f8000000000000000000000000000000000000000000000000000000000000000831416156144ee576144ed613777565b5b828205905092915050565b600061450482612e6b565b915061450f83612e6b565b9250827fffffffffffffffffffffffffffffffffffffffffffffffffffffffffffffffff0382111561454457614543613777565b5b828201905092915050565b7f4e487b7100000000000000000000000000000000000000000000000000000000600052603160045260246000fd5b7f536166654d6174683a206d756c7469706c69636174696f6e206f766572666c6f60008201527f7700000000000000000000000000000000000000000000000000000000000000602082015250565b60006145da602183613412565b91506145e58261457e565b604082019050919050565b60006020820190508181036000830152614609816145cd565b9050919050565b7f4e487b7100000000000000000000000000000000000000000000000000000000600052600160045260246000fd5b7f416464726573733a20696e73756666696369656e742062616c616e636520666f60008201527f722063616c6c0000000000000000000000000000000000000000000000000000602082015250565b600061469b602683613412565b91506146a68261463f565b604082019050919050565b600060208201905081810360008301526146ca8161468e565b9050919050565b7f416464726573733a2063616c6c20746f206e6f6e2d636f6e7472616374000000600082015250565b6000614707601d83613412565b9150614712826146d1565b602082019050919050565b60006020820190508181036000830152614736816146fa565b9050919050565b600081905092915050565b6000614753826135b4565b61475d818561473d565b935061476d8185602086016135d0565b80840191505092915050565b60006147858284614748565b915081905092915050565b600081519050919050565b60006147a682614790565b6147b08185613412565b93506147c08185602086016135d0565b6147c981612eab565b840191505092915050565b600060208201905081810360008301526147ee818461479b565b90509291505056fea264697066735822122081faf24ff0611a39557e1c02f8458f21c261a73221902bc280dbea9531959c4b64736f6c634300080d0033",
  "linkReferences": {},
  "deployedLinkReferences": {}
}