{
  "_format": "hh-sol-artifact-1",
  "contractName": "FlashBot",
  "sourceName": "contracts/FlashBot.sol",
  "abi": [
    {
      "inputs": [
        {
          "internalType": "address",
          "name": "_WBNB",
          "type": "address"
        },
        {
          "internalType": "uint256",
          "name": "_minProfit",
          "type": "uint256"
        }
      ],
      "stateMutability": "nonpayable",
      "type": "constructor"
    },
    {
      "anonymous": false,
      "inputs": [
        {
          "indexed": true,
          "internalType": "address",
          "name": "token",
          "type": "address"
        }
      ],
      "name": "BaseTokenAdded",
      "type": "event"
    },
    {
      "anonymous": false,
      "inputs": [
        {
          "indexed": true,
          "internalType": "address",
          "name": "token",
          "type": "address"
        }
      ],
      "name": "BaseTokenRemoved",
      "type": "event"
    },
    {
      "anonymous": false,
      "inputs": [
        {
          "indexed": true,
          "internalType": "address",
          "name": "previousOwner",
          "type": "address"
        },
        {
          "indexed": true,
          "internalType": "address",
          "name": "newOwner",
          "type": "address"
        }
      ],
      "name": "OwnershipTransferred",
      "type": "event"
    },
    {
      "anonymous": false,
      "inputs": [
        {
          "indexed": true,
          "internalType": "address",
          "name": "to",
          "type": "address"
        },
        {
          "indexed": true,
          "internalType": "uint256",
          "name": "value",
          "type": "uint256"
        }
      ],
      "name": "Withdrawn",
      "type": "event"
    },
    {
      "stateMutability": "nonpayable",
      "type": "fallback"
    },
    {
      "inputs": [
        {
          "internalType": "address",
          "name": "token",
          "type": "address"
        },
        {
          "internalType": "uint256",
          "name": "_minProfit",
          "type": "uint256"
        }
      ],
      "name": "addBaseToken",
      "outputs": [],
      "stateMutability": "nonpayable",
      "type": "function"
    },
    {
      "inputs": [
        {
          "internalType": "address",
          "name": "token",
          "type": "address"
        }
      ],
      "name": "baseTokensContains",
      "outputs": [
        {
          "internalType": "bool",
          "name": "",
          "type": "bool"
        }
      ],
      "stateMutability": "view",
      "type": "function"
    },
    {
      "inputs": [
        {
          "internalType": "address",
          "name": "",
          "type": "address"
        }
      ],
      "name": "baseTokensMinProfit",
      "outputs": [
        {
          "internalType": "uint256",
          "name": "",
          "type": "uint256"
        }
      ],
      "stateMutability": "view",
      "type": "function"
    },
    {
      "inputs": [
        {
          "internalType": "address",
          "name": "pool0",
          "type": "address"
        },
        {
          "internalType": "address",
          "name": "pool1",
          "type": "address"
        }
      ],
      "name": "flashArbitrageforYulin",
      "outputs": [],
      "stateMutability": "nonpayable",
      "type": "function"
    },
    {
      "inputs": [],
      "name": "getBaseTokens",
      "outputs": [
        {
          "internalType": "address[]",
          "name": "tokens",
          "type": "address[]"
        }
      ],
      "stateMutability": "view",
      "type": "function"
    },
    {
      "inputs": [
        {
          "internalType": "address",
          "name": "pool0",
          "type": "address"
        },
        {
          "internalType": "address",
          "name": "pool1",
          "type": "address"
        }
      ],
      "name": "getProfit",
      "outputs": [
        {
          "internalType": "uint256",
          "name": "profit",
          "type": "uint256"
        },
        {
          "internalType": "address",
          "name": "baseToken",
          "type": "address"
        }
      ],
      "stateMutability": "view",
      "type": "function"
    },
    {
      "inputs": [],
      "name": "owner",
      "outputs": [
        {
          "internalType": "address",
          "name": "",
          "type": "address"
        }
      ],
      "stateMutability": "view",
      "type": "function"
    },
    {
      "inputs": [
        {
          "internalType": "address",
          "name": "token",
          "type": "address"
        }
      ],
      "name": "removeBaseToken",
      "outputs": [],
      "stateMutability": "nonpayable",
      "type": "function"
    },
    {
      "inputs": [],
      "name": "renounceOwnership",
      "outputs": [],
      "stateMutability": "nonpayable",
      "type": "function"
    },
    {
      "inputs": [
        {
          "internalType": "address",
          "name": "token",
          "type": "address"
        },
        {
          "internalType": "uint256",
          "name": "_minProfit",
          "type": "uint256"
        }
      ],
      "name": "setBaseTokenMinProfit",
      "outputs": [],
      "stateMutability": "nonpayable",
      "type": "function"
    },
    {
      "inputs": [
        {
          "internalType": "address",
          "name": "newOwner",
          "type": "address"
        }
      ],
      "name": "transferOwnership",
      "outputs": [],
      "stateMutability": "nonpayable",
      "type": "function"
    },
    {
      "inputs": [
        {
          "internalType": "address",
          "name": "sender",
          "type": "address"
        },
        {
          "internalType": "uint256",
          "name": "amount0",
          "type": "uint256"
        },
        {
          "internalType": "uint256",
          "name": "amount1",
          "type": "uint256"
        },
        {
          "internalType": "bytes",
          "name": "data",
          "type": "bytes"
        }
      ],
      "name": "uniswapV2Call",
      "outputs": [],
      "stateMutability": "nonpayable",
      "type": "function"
    },
    {
      "inputs": [],
      "name": "wallet",
      "outputs": [
        {
          "internalType": "address",
          "name": "",
          "type": "address"
        }
      ],
      "stateMutability": "view",
      "type": "function"
    },
    {
      "inputs": [],
      "name": "withdraw",
      "outputs": [],
      "stateMutability": "nonpayable",
      "type": "function"
    },
    {
      "stateMutability": "payable",
      "type": "receive"
    }
  ],
  "bytecode": "0x60c060405273626b0bb69bc86aa0e8b5a1c167857a66514e36e173ffffffffffffffffffffffffffffffffffffffff1660809073ffffffffffffffffffffffffffffffffffffffff1681525060018060006101000a81548173ffffffffffffffffffffffffffffffffffffffff021916908373ffffffffffffffffffffffffffffffffffffffff1602179055503480156200009957600080fd5b5060405162005313380380620053138339818101604052810190620000bf9190620003c5565b620000df620000d36200017f60201b60201c565b6200018760201b60201c565b8173ffffffffffffffffffffffffffffffffffffffff1660a08173ffffffffffffffffffffffffffffffffffffffff1681525050806002600060a05173ffffffffffffffffffffffffffffffffffffffff1673ffffffffffffffffffffffffffffffffffffffff168152602001908152602001600020819055506200017660a05160036200024b60201b620017f01790919060201c565b5050506200040c565b600033905090565b60008060009054906101000a900473ffffffffffffffffffffffffffffffffffffffff169050816000806101000a81548173ffffffffffffffffffffffffffffffffffffffff021916908373ffffffffffffffffffffffffffffffffffffffff1602179055508173ffffffffffffffffffffffffffffffffffffffff168173ffffffffffffffffffffffffffffffffffffffff167f8be0079c531659141344cd1fd0a4f28419497f9722a3daafe3b4186f6b6457e060405160405180910390a35050565b60006200027b836000018373ffffffffffffffffffffffffffffffffffffffff1660001b6200028360201b60201c565b905092915050565b6000620002978383620002fd60201b60201c565b620002f2578260000182908060018154018082558091505060019003906000526020600020016000909190919091505582600001805490508360010160008481526020019081526020016000208190555060019050620002f7565b600090505b92915050565b600080836001016000848152602001908152602001600020541415905092915050565b600080fd5b600073ffffffffffffffffffffffffffffffffffffffff82169050919050565b6000620003528262000325565b9050919050565b620003648162000345565b81146200037057600080fd5b50565b600081519050620003848162000359565b92915050565b6000819050919050565b6200039f816200038a565b8114620003ab57600080fd5b50565b600081519050620003bf8162000394565b92915050565b60008060408385031215620003df57620003de62000320565b5b6000620003ef8582860162000373565b92505060206200040285828601620003ae565b9150509250929050565b60805160a051614ec1620004526000396000505060008181610773015281816107db0152818161090c015281816109a801528181611161015261153c0152614ec16000f3fe6080604052600436106100e15760003560e01c80636f07ff371161007f5780638da5cb5b116100595780638da5cb5b146102e7578063bbd1e12214610312578063bed64c2f1461033b578063f2fde38b14610366576100e8565b80636f07ff3714610269578063715018a614610292578063759eee10146102a9576100e8565b8063220df989116100bb578063220df989146101c15780633ccfd60b146101fe578063521eb273146102155780636923d49214610240576100e8565b80630aa67e7f1461013257806310d1e85c1461015b57806321d0942614610184576100e8565b366100e857005b3480156100f457600080fd5b50600080600080600036600490809261010f939291906133b5565b81019061011c91906135d4565b93509350935093506101308484848461038f565b005b34801561013e57600080fd5b5061015960048036038101906101549190613695565b610612565b005b34801561016757600080fd5b50610182600480360381019061017d91906136d5565b61038f565b005b34801561019057600080fd5b506101ab60048036038101906101a69190613758565b61072e565b6040516101b891906137a0565b60405180910390f35b3480156101cd57600080fd5b506101e860048036038101906101e39190613758565b61074b565b6040516101f591906137ca565b60405180910390f35b34801561020a57600080fd5b50610213610763565b005b34801561022157600080fd5b5061022a6109a6565b60405161023791906137f4565b60405180910390f35b34801561024c57600080fd5b5061026760048036038101906102629190613695565b6109ca565b005b34801561027557600080fd5b50610290600480360381019061028b919061380f565b610a8e565b005b34801561029e57600080fd5b506102a76111f4565b005b3480156102b557600080fd5b506102d060048036038101906102cb919061380f565b61127c565b6040516102de92919061384f565b60405180910390f35b3480156102f357600080fd5b506102fc6113f2565b60405161030991906137f4565b60405180910390f35b34801561031e57600080fd5b5061033960048036038101906103349190613758565b61141b565b005b34801561034757600080fd5b5061035061161a565b60405161035d9190613936565b60405180910390f35b34801561037257600080fd5b5061038d60048036038101906103889190613758565b6116f9565b005b600160009054906101000a900473ffffffffffffffffffffffffffffffffffffffff1673ffffffffffffffffffffffffffffffffffffffff163373ffffffffffffffffffffffffffffffffffffffff161461041f576040517f08c379a0000000000000000000000000000000000000000000000000000000008152600401610416906139b5565b60405180910390fd5b3073ffffffffffffffffffffffffffffffffffffffff168473ffffffffffffffffffffffffffffffffffffffff161461048d576040517f08c379a000000000000000000000000000000000000000000000000000000000815260040161048490613a21565b60405180910390fd5b600080841161049c578261049e565b835b90506000828060200190518101906104b69190613b50565b90506104eb816020015183836060015173ffffffffffffffffffffffffffffffffffffffff166118209092919063ffffffff16565b60008082604001516105035760008360c0015161050b565b8260c0015160005b91509150826020015173ffffffffffffffffffffffffffffffffffffffff1663022c0d9f838330600067ffffffffffffffff81111561054d5761054c6134a9565b5b6040519080825280601f01601f19166020018201604052801561057f5781602001600182028036833780820191505090505b506040518563ffffffff1660e01b815260040161059f9493929190613c05565b600060405180830381600087803b1580156105b957600080fd5b505af11580156105cd573d6000803e3d6000fd5b5050505061060883600001518460a00151856080015173ffffffffffffffffffffffffffffffffffffffff166118209092919063ffffffff16565b5050505050505050565b61061a6118a6565b73ffffffffffffffffffffffffffffffffffffffff166106386113f2565b73ffffffffffffffffffffffffffffffffffffffff161461068e576040517f08c379a000000000000000000000000000000000000000000000000000000000815260040161068590613c9d565b60405180910390fd5b6106a28260036117f090919063ffffffff16565b5080600260008473ffffffffffffffffffffffffffffffffffffffff1673ffffffffffffffffffffffffffffffffffffffff168152602001908152602001600020819055508173ffffffffffffffffffffffffffffffffffffffff167ffa1388d6e7328e9c711a539b0addfc27de8bfb6f5924cce26f80f41023b1525360405160405180910390a25050565b60006107448260036118ae90919063ffffffff16565b9050919050565b60026020528060005260406000206000915090505481565b6000479050600081111561083d577f000000000000000000000000000000000000000000000000000000000000000073ffffffffffffffffffffffffffffffffffffffff166108fc829081150290604051600060405180830381858888f193505050501580156107d7573d6000803e3d6000fd5b50807f000000000000000000000000000000000000000000000000000000000000000073ffffffffffffffffffffffffffffffffffffffff167f7084f5476618d8e60b11ef0d7d3f06914655adb8793e28ff7f018d4c76d505d560405160405180910390a35b60005b61084a60036118de565b8110156109a25760006108678260036118f390919063ffffffff16565b90508073ffffffffffffffffffffffffffffffffffffffff166370a08231306040518263ffffffff1660e01b81526004016108a291906137f4565b602060405180830381865afa1580156108bf573d6000803e3d6000fd5b505050506040513d601f19601f820116820180604052508101906108e39190613cbd565b9250600083111561098e578073ffffffffffffffffffffffffffffffffffffffff1663a9059cbb7f0000000000000000000000000000000000000000000000000000000000000000856040518363ffffffff1660e01b8152600401610949929190613cea565b6020604051808303816000875af1158015610968573d6000803e3d6000fd5b505050506040513d601f19601f8201168201806040525081019061098c9190613d13565b505b50808061099a90613d6f565b915050610840565b5050565b7f000000000000000000000000000000000000000000000000000000000000000081565b6109d26118a6565b73ffffffffffffffffffffffffffffffffffffffff166109f06113f2565b73ffffffffffffffffffffffffffffffffffffffff1614610a46576040517f08c379a0000000000000000000000000000000000000000000000000000000008152600401610a3d90613c9d565b60405180910390fd5b80600260008473ffffffffffffffffffffffffffffffffffffffff1673ffffffffffffffffffffffffffffffffffffffff168152602001908152602001600020819055505050565b610a96613246565b610aa0838361190d565b8360400184600001856020018373ffffffffffffffffffffffffffffffffffffffff1673ffffffffffffffffffffffffffffffffffffffff168152508373ffffffffffffffffffffffffffffffffffffffff1673ffffffffffffffffffffffffffffffffffffffff168152508315151515815250505050610b5a6040518060400160405280600281526020017f73730000000000000000000000000000000000000000000000000000000000008152508260400151611d1e565b610b626132cf565b610b7184848460400151611dba565b84606001856080018295508373ffffffffffffffffffffffffffffffffffffffff1673ffffffffffffffffffffffffffffffffffffffff168152508373ffffffffffffffffffffffffffffffffffffffff1673ffffffffffffffffffffffffffffffffffffffff168152505050508160600151600160006101000a81548173ffffffffffffffffffffffffffffffffffffffff021916908373ffffffffffffffffffffffffffffffffffffffff1602179055506000826000015173ffffffffffffffffffffffffffffffffffffffff166370a08231306040518263ffffffff1660e01b8152600401610c6391906137f4565b602060405180830381865afa158015610c80573d6000803e3d6000fd5b505050506040513d601f19601f82011682018060405250810190610ca49190613cbd565b9050610ce96040518060400160405280601681526020017f76316c6f776572506f6f6c4261736552657365727665000000000000000000008152508360000151612020565b610d2c6040518060400160405280601781526020017f7631686967686572506f6f6c42617365526573657276650000000000000000008152508360400151612020565b610d6f6040518060400160405280601781526020017f76316c6f776572506f6f6c51756f7465526573657276650000000000000000008152508360200151612020565b610db26040518060400160405280601881526020017f7631686967686572506f6f6c51756f74655265736572766500000000000000008152508360600151612020565b6000610dbd836120bc565b9050610dfe6040518060400160405280600c81526020017f626f72726f77416d6f756e74000000000000000000000000000000000000000081525082612020565b6000808560400151610e1257826000610e16565b6000835b915091506000610e2f8487600001518860200151612708565b90506000610e46858860600151896040015161281b565b9050818111610e8a576040517f08c379a0000000000000000000000000000000000000000000000000000000008152600401610e8190613e03565b60405180910390fd5b610e926132f7565b8860600151816000019073ffffffffffffffffffffffffffffffffffffffff16908173ffffffffffffffffffffffffffffffffffffffff16815250508860800151816020019073ffffffffffffffffffffffffffffffffffffffff16908173ffffffffffffffffffffffffffffffffffffffff168152505088604001518160400190151590811515815250508860200151816060019073ffffffffffffffffffffffffffffffffffffffff16908173ffffffffffffffffffffffffffffffffffffffff16815250508860000151816080019073ffffffffffffffffffffffffffffffffffffffff16908173ffffffffffffffffffffffffffffffffffffffff1681525050828160a0018181525050818160c0018181525050600081604051602001610fbd9190613ecf565b6040516020818303038152906040529050896060015173ffffffffffffffffffffffffffffffffffffffff1663022c0d9f878730856040518563ffffffff1660e01b81526004016110119493929190613c05565b600060405180830381600087803b15801561102b57600080fd5b505af115801561103f573d6000803e3d6000fd5b50505050505050505050506000836000015173ffffffffffffffffffffffffffffffffffffffff166370a08231306040518263ffffffff1660e01b815260040161108991906137f4565b602060405180830381865afa1580156110a6573d6000803e3d6000fd5b505050506040513d601f19601f820116820180604052508101906110ca9190613cbd565b9050818111801561111d575060026000856000015173ffffffffffffffffffffffffffffffffffffffff1673ffffffffffffffffffffffffffffffffffffffff1681526020019081526020016000205481115b61115c576040517f08c379a000000000000000000000000000000000000000000000000000000000815260040161115390613f36565b60405180910390fd5b6111ab7f000000000000000000000000000000000000000000000000000000000000000082866000015173ffffffffffffffffffffffffffffffffffffffff166118209092919063ffffffff16565b60018060006101000a81548173ffffffffffffffffffffffffffffffffffffffff021916908373ffffffffffffffffffffffffffffffffffffffff160217905550505050505050565b6111fc6118a6565b73ffffffffffffffffffffffffffffffffffffffff1661121a6113f2565b73ffffffffffffffffffffffffffffffffffffffff1614611270576040517f08c379a000000000000000000000000000000000000000000000000000000000815260040161126790613c9d565b60405180910390fd5b61127a6000612921565b565b600080600061128b858561190d565b5050905080611308578473ffffffffffffffffffffffffffffffffffffffff1663d21220a76040518163ffffffff1660e01b8152600401602060405180830381865afa1580156112df573d6000803e3d6000fd5b505050506040513d601f19601f820116820180604052508101906113039190613f56565b611378565b8473ffffffffffffffffffffffffffffffffffffffff16630dfe16816040518163ffffffff1660e01b8152600401602060405180830381865afa158015611353573d6000803e3d6000fd5b505050506040513d601f19601f820116820180604052508101906113779190613f56565b5b91506000611387868684611dba565b925050506000611396826120bc565b905060006113ad8284600001518560200151612708565b905060006113c4838560600151866040015161281b565b9050818110156113d757600096506113e6565b81816113e39190613f83565b96505b50505050509250929050565b60008060009054906101000a900473ffffffffffffffffffffffffffffffffffffffff16905090565b6114236118a6565b73ffffffffffffffffffffffffffffffffffffffff166114416113f2565b73ffffffffffffffffffffffffffffffffffffffff1614611497576040517f08c379a000000000000000000000000000000000000000000000000000000000815260040161148e90613c9d565b60405180910390fd5b60008173ffffffffffffffffffffffffffffffffffffffff166370a08231306040518263ffffffff1660e01b81526004016114d291906137f4565b602060405180830381865afa1580156114ef573d6000803e3d6000fd5b505050506040513d601f19601f820116820180604052508101906115139190613cbd565b905060008111156115be578173ffffffffffffffffffffffffffffffffffffffff1663a9059cbb7f0000000000000000000000000000000000000000000000000000000000000000836040518363ffffffff1660e01b8152600401611579929190613cea565b6020604051808303816000875af1158015611598573d6000803e3d6000fd5b505050506040513d601f19601f820116820180604052508101906115bc9190613d13565b505b6115d28260036129e590919063ffffffff16565b508173ffffffffffffffffffffffffffffffffffffffff167fdc23a849435922f20a9732eb85192a9d0c1cb34725ebe6d7de0be10212ba02fb60405160405180910390a25050565b6060600061162860036118de565b90508067ffffffffffffffff811115611644576116436134a9565b5b6040519080825280602002602001820160405280156116725781602001602082028036833780820191505090505b50915060005b818110156116f4576116948160036118f390919063ffffffff16565b8382815181106116a7576116a6613fb7565b5b602002602001019073ffffffffffffffffffffffffffffffffffffffff16908173ffffffffffffffffffffffffffffffffffffffff168152505080806116ec90613d6f565b915050611678565b505090565b6117016118a6565b73ffffffffffffffffffffffffffffffffffffffff1661171f6113f2565b73ffffffffffffffffffffffffffffffffffffffff1614611775576040517f08c379a000000000000000000000000000000000000000000000000000000000815260040161176c90613c9d565b60405180910390fd5b600073ffffffffffffffffffffffffffffffffffffffff168173ffffffffffffffffffffffffffffffffffffffff16036117e4576040517f08c379a00000000000000000000000000000000000000000000000000000000081526004016117db90614058565b60405180910390fd5b6117ed81612921565b50565b6000611818836000018373ffffffffffffffffffffffffffffffffffffffff1660001b612a15565b905092915050565b6118a18363a9059cbb60e01b848460405160240161183f929190613cea565b604051602081830303815290604052907bffffffffffffffffffffffffffffffffffffffffffffffffffffffff19166020820180517bffffffffffffffffffffffffffffffffffffffffffffffffffffffff8381831617835250505050612a85565b505050565b600033905090565b60006118d6836000018373ffffffffffffffffffffffffffffffffffffffff1660001b612b4c565b905092915050565b60006118ec82600001612b6f565b9050919050565b60006119028360000183612b80565b60001c905092915050565b60008060008373ffffffffffffffffffffffffffffffffffffffff168573ffffffffffffffffffffffffffffffffffffffff1603611980576040517f08c379a0000000000000000000000000000000000000000000000000000000008152600401611977906140c4565b60405180910390fd5b6000808673ffffffffffffffffffffffffffffffffffffffff16630dfe16816040518163ffffffff1660e01b8152600401602060405180830381865afa1580156119ce573d6000803e3d6000fd5b505050506040513d601f19601f820116820180604052508101906119f29190613f56565b8773ffffffffffffffffffffffffffffffffffffffff1663d21220a76040518163ffffffff1660e01b8152600401602060405180830381865afa158015611a3d573d6000803e3d6000fd5b505050506040513d601f19601f82011682018060405250810190611a619190613f56565b915091506000808773ffffffffffffffffffffffffffffffffffffffff16630dfe16816040518163ffffffff1660e01b8152600401602060405180830381865afa158015611ab3573d6000803e3d6000fd5b505050506040513d601f19601f82011682018060405250810190611ad79190613f56565b8873ffffffffffffffffffffffffffffffffffffffff1663d21220a76040518163ffffffff1660e01b8152600401602060405180830381865afa158015611b22573d6000803e3d6000fd5b505050506040513d601f19601f82011682018060405250810190611b469190613f56565b915091508273ffffffffffffffffffffffffffffffffffffffff168473ffffffffffffffffffffffffffffffffffffffff16108015611bb057508073ffffffffffffffffffffffffffffffffffffffff168273ffffffffffffffffffffffffffffffffffffffff16105b611bef576040517f08c379a0000000000000000000000000000000000000000000000000000000008152600401611be690614130565b60405180910390fd5b8173ffffffffffffffffffffffffffffffffffffffff168473ffffffffffffffffffffffffffffffffffffffff16148015611c5557508073ffffffffffffffffffffffffffffffffffffffff168373ffffffffffffffffffffffffffffffffffffffff16145b611c94576040517f08c379a0000000000000000000000000000000000000000000000000000000008152600401611c8b9061419c565b60405180910390fd5b611c9d8461072e565b80611cad5750611cac8361072e565b5b611cec576040517f08c379a0000000000000000000000000000000000000000000000000000000008152600401611ce390614208565b60405180910390fd5b611cf58461072e565b611d025760008385611d07565b600184845b809750819850829950505050505050509250925092565b611db68282604051602401611d3492919061426c565b6040516020818303038152906040527fc3b55635000000000000000000000000000000000000000000000000000000007bffffffffffffffffffffffffffffffffffffffffffffffffffffffff19166020820180517bffffffffffffffffffffffffffffffffffffffffffffffffffffffff8381831617835250505050612bab565b5050565b600080611dc56132cf565b6000808773ffffffffffffffffffffffffffffffffffffffff16630902f1ac6040518163ffffffff1660e01b8152600401606060405180830381865afa158015611e13573d6000803e3d6000fd5b505050506040513d601f19601f82011682018060405250810190611e37919061431e565b506dffffffffffffffffffffffffffff1691506dffffffffffffffffffffffffffff1691506000808873ffffffffffffffffffffffffffffffffffffffff16630902f1ac6040518163ffffffff1660e01b8152600401606060405180830381865afa158015611eaa573d6000803e3d6000fd5b505050506040513d601f19601f82011682018060405250810190611ece919061431e565b506dffffffffffffffffffffffffffff1691506dffffffffffffffffffffffffffff16915060008089611f3657611f1686611f0887612bd4565b612c0c90919063ffffffff16565b611f3185611f2386612bd4565b612c0c90919063ffffffff16565b611f6d565b611f5185611f4388612bd4565b612c0c90919063ffffffff16565b611f6c84611f5e87612bd4565b612c0c90919063ffffffff16565b5b91509150611f848183612c4190919063ffffffff16565b15611fcf578b8b809950819a50505089611fa15784868486611fa6565b858585855b8a6000018b6020018c6040018d6060018481525084815250848152508481525050505050612011565b8a8c809950819a50505089611fe75782848688611fec565b838387875b8a6000018b6020018c6040018d60600184815250848152508481525084815250505050505b50505050505093509350939050565b6120b88282604051602401612036929190614371565b6040516020818303038152906040527f9710a9d0000000000000000000000000000000000000000000000000000000007bffffffffffffffffffffffffffffffffffffffffffffffffffffffff19166020820180517bffffffffffffffffffffffffffffffffffffffffffffffffffffffff8381831617835250505050612bab565b5050565b60008082602001518360000151106120d85782602001516120de565b82600001515b9050600083606001518460400151106120fb578360600151612101565b83604001515b905060008183106121125781612114565b825b90506121556040518060400160405280600381526020017f6d696e000000000000000000000000000000000000000000000000000000000081525082612020565b600069d3c21bcecceda100000082111561217a5768056bc75e2d6310000090506122f3565b69152d02c7e14af680000082111561219c57678ac7230489e8000090506122f2565b69021e19e0c9bab24000008211156121be57670de0b6b3a764000090506122f1565b683635c9adc5dea000008211156121df5767016345785d8a000090506122f0565b68056bc75e2d631000008211156121ff57662386f26fc1000090506122ef565b678ac7230489e8000082111561221e5766038d7ea4c6800090506122ee565b670de0b6b3a764000082111561223c57655af3107a400090506122ed565b67016345785d8a000082111561225a576509184e72a00090506122ec565b662386f26fc100008211156122765764e8d4a5100090506122eb565b66038d7ea4c680008211156122925764174876e80090506122ea565b655af3107a40008211156122ad576402540be40090506122e9565b6509184e72a0008211156122c757633b9aca0090506122e8565b64e8d4a510008211156122e0576305f5e10090506122e7565b6298968090505b5b5b5b5b5b5b5b5b5b5b5b5b6123326040518060400160405280600181526020017f640000000000000000000000000000000000000000000000000000000000000081525082612020565b600080600080848a6000015161234891906143d0565b858b6040015161235891906143d0565b868c6020015161236891906143d0565b878d6060015161237891906143d0565b93509350935093506123bf6040518060400160405280600281526020017f613100000000000000000000000000000000000000000000000000000000000081525085612020565b6123fe6040518060400160405280600281526020017f613200000000000000000000000000000000000000000000000000000000000081525084612020565b61243d6040518060400160405280600281526020017f623100000000000000000000000000000000000000000000000000000000000081525083612020565b61247c6040518060400160405280600281526020017f623200000000000000000000000000000000000000000000000000000000000081525082612020565b6000818461248a919061440b565b8386612496919061440b565b6124a09190614522565b9050600084866124b091906145b6565b838560026124be919061440b565b6124c8919061440b565b6124d2919061440b565b9050600084866124e2919061440b565b84886124ee919061440b565b6124f89190614522565b8486612504919061440b565b61250e919061440b565b905061254f6040518060400160405280600281526020017f613100000000000000000000000000000000000000000000000000000000000081525084612020565b61258e6040518060400160405280600281526020017f613200000000000000000000000000000000000000000000000000000000000081525083612020565b6125cd6040518060400160405280600281526020017f623100000000000000000000000000000000000000000000000000000000000081525082612020565b6000806125db858585612c57565b9150915061261e6040518060400160405280600281526020017f613100000000000000000000000000000000000000000000000000000000000081525083612020565b61265d6040518060400160405280600281526020017f613200000000000000000000000000000000000000000000000000000000000081525082612020565b60008213801561266c57508682125b801561267757508582125b80612698575060008113801561268c57508681125b801561269757508581125b5b156126d45786821280156126ab57508582125b6126c05789816126bb919061464a565b6126cd565b89826126cc919061464a565b5b9d506126f6565b8e606001518f60200151106126ed578e606001516126f3565b8e602001515b9d505b50505050505050505050505050919050565b600080841161274c576040517f08c379a000000000000000000000000000000000000000000000000000000000815260040161274390614716565b60405180910390fd5b60008311801561275c5750600082115b61279b576040517f08c379a0000000000000000000000000000000000000000000000000000000008152600401612792906147a8565b60405180910390fd5b60006127c46103e86127b68787612d4390919063ffffffff16565b612d4390919063ffffffff16565b905060006127ef6103e56127e18887612d5990919063ffffffff16565b612d4390919063ffffffff16565b90506128106001828461280291906143d0565b612d6f90919063ffffffff16565b925050509392505050565b600080841161285f576040517f08c379a00000000000000000000000000000000000000000000000000000000081526004016128569061483a565b60405180910390fd5b60008311801561286f5750600082115b6128ae576040517f08c379a00000000000000000000000000000000000000000000000000000000081526004016128a5906147a8565b60405180910390fd5b60006128c56103e586612d4390919063ffffffff16565b905060006128dc8483612d4390919063ffffffff16565b90506000612907836128f96103e889612d4390919063ffffffff16565b612d6f90919063ffffffff16565b9050808261291591906143d0565b93505050509392505050565b60008060009054906101000a900473ffffffffffffffffffffffffffffffffffffffff169050816000806101000a81548173ffffffffffffffffffffffffffffffffffffffff021916908373ffffffffffffffffffffffffffffffffffffffff1602179055508173ffffffffffffffffffffffffffffffffffffffff168173ffffffffffffffffffffffffffffffffffffffff167f8be0079c531659141344cd1fd0a4f28419497f9722a3daafe3b4186f6b6457e060405160405180910390a35050565b6000612a0d836000018373ffffffffffffffffffffffffffffffffffffffff1660001b612d85565b905092915050565b6000612a218383612b4c565b612a7a578260000182908060018154018082558091505060019003906000526020600020016000909190919091505582600001805490508360010160008481526020019081526020016000208190555060019050612a7f565b600090505b92915050565b6000612ae7826040518060400160405280602081526020017f5361666545524332303a206c6f772d6c6576656c2063616c6c206661696c65648152508573ffffffffffffffffffffffffffffffffffffffff16612e999092919063ffffffff16565b9050600081511115612b475780806020019051810190612b079190613d13565b612b46576040517f08c379a0000000000000000000000000000000000000000000000000000000008152600401612b3d906148cc565b60405180910390fd5b5b505050565b600080836001016000848152602001908152602001600020541415905092915050565b600081600001805490509050919050565b6000826000018281548110612b9857612b97613fb7565b5b9060005260206000200154905092915050565b60008151905060006a636f6e736f6c652e6c6f679050602083016000808483855afa5050505050565b612bdc61338e565b6040518060200160405280612c02670de0b6b3a764000085612eb190919063ffffffff16565b8152509050919050565b612c1461338e565b6040518060200160405280612c36848660000151612f2b90919063ffffffff16565b815250905092915050565b600080612c4e8484612f75565b14905092915050565b600080600083866004612c6a919061440b565b612c74919061440b565b600286612c819190614a48565b612c8b9190614522565b905060008113612cd0576040517f08c379a0000000000000000000000000000000000000000000000000000000008152600401612cc790614b00565b60405180910390fd5b6000612cdb82612fb4565b9050866002612cea919061440b565b8187612cf590614b20565b612cff91906145b6565b612d099190614b68565b9350866002612d18919061440b565b8187612d2390614b20565b612d2d9190614522565b612d379190614b68565b92505050935093915050565b60008183612d51919061464a565b905092915050565b60008183612d679190613f83565b905092915050565b60008183612d7d9190614bd2565b905092915050565b60008083600101600084815260200190815260200160002054905060008114612e8d576000600182612db79190613f83565b9050600060018660000180549050612dcf9190613f83565b9050818114612e3e576000866000018281548110612df057612def613fb7565b5b9060005260206000200154905080876000018481548110612e1457612e13613fb7565b5b90600052602060002001819055508387600101600083815260200190815260200160002081905550505b85600001805480612e5257612e51614c28565b5b600190038181906000526020600020016000905590558560010160008681526020019081526020016000206000905560019350505050612e93565b60009150505b92915050565b6060612ea88484600085613045565b90509392505050565b6000808303612ec35760009050612f25565b60008284612ed1919061464a565b9050828482612ee091906143d0565b14612f20576040517f08c379a0000000000000000000000000000000000000000000000000000000008152600401612f1790614cc9565b60405180910390fd5b809150505b92915050565b6000612f6d83836040518060400160405280601a81526020017f536166654d6174683a206469766973696f6e206279207a65726f000000000000815250613159565b905092915050565b60008160000151836000015103612f8f5760019050612fae565b8160000151836000015111612fa5576000612fa8565b60025b60ff1690505b92915050565b600060018211612fc757612fc6614ce9565b5b6000620f424083612fd8919061464a565b9050600081905081925060005b60011561302d5760028483612ffa91906143d0565b856130059190614bd2565b61300f91906143d0565b90506103e881856130209190613f83565b1061302d57809350612fe5565b6103e88461303b91906143d0565b9350505050919050565b60608247101561308a576040517f08c379a000000000000000000000000000000000000000000000000000000000815260040161308190614d8a565b60405180910390fd5b613093856131bc565b6130d2576040517f08c379a00000000000000000000000000000000000000000000000000000000081526004016130c990614df6565b60405180910390fd5b6000808673ffffffffffffffffffffffffffffffffffffffff1685876040516130fb9190614e52565b60006040518083038185875af1925050503d8060008114613138576040519150601f19603f3d011682016040523d82523d6000602084013e61313d565b606091505b509150915061314d8282866131df565b92505050949350505050565b600080831182906131a0576040517f08c379a00000000000000000000000000000000000000000000000000000000081526004016131979190614e69565b60405180910390fd5b50600083856131af91906143d0565b9050809150509392505050565b6000808273ffffffffffffffffffffffffffffffffffffffff163b119050919050565b606083156131ef5782905061323f565b6000835111156132025782518084602001fd5b816040517f08c379a00000000000000000000000000000000000000000000000000000000081526004016132369190614e69565b60405180910390fd5b9392505050565b6040518060a00160405280600073ffffffffffffffffffffffffffffffffffffffff168152602001600073ffffffffffffffffffffffffffffffffffffffff168152602001600015158152602001600073ffffffffffffffffffffffffffffffffffffffff168152602001600073ffffffffffffffffffffffffffffffffffffffff1681525090565b6040518060800160405280600081526020016000815260200160008152602001600081525090565b6040518060e00160405280600073ffffffffffffffffffffffffffffffffffffffff168152602001600073ffffffffffffffffffffffffffffffffffffffff168152602001600015158152602001600073ffffffffffffffffffffffffffffffffffffffff168152602001600073ffffffffffffffffffffffffffffffffffffffff16815260200160008152602001600081525090565b6040518060200160405280600081525090565b6000604051905090565b600080fd5b600080fd5b600080858511156133c9576133c86133ab565b5b838611156133da576133d96133b0565b5b6001850283019150848603905094509492505050565b600080fd5b600080fd5b600073ffffffffffffffffffffffffffffffffffffffff82169050919050565b6000613425826133fa565b9050919050565b6134358161341a565b811461344057600080fd5b50565b6000813590506134528161342c565b92915050565b6000819050919050565b61346b81613458565b811461347657600080fd5b50565b60008135905061348881613462565b92915050565b600080fd5b600080fd5b6000601f19601f8301169050919050565b7f4e487b7100000000000000000000000000000000000000000000000000000000600052604160045260246000fd5b6134e182613498565b810181811067ffffffffffffffff82111715613500576134ff6134a9565b5b80604052505050565b60006135136133a1565b905061351f82826134d8565b919050565b600067ffffffffffffffff82111561353f5761353e6134a9565b5b61354882613498565b9050602081019050919050565b82818337600083830152505050565b600061357761357284613524565b613509565b90508281526020810184848401111561359357613592613493565b5b61359e848285613555565b509392505050565b600082601f8301126135bb576135ba61348e565b5b81356135cb848260208601613564565b91505092915050565b600080600080608085870312156135ee576135ed6133f0565b5b60006135fc87828801613443565b945050602061360d87828801613479565b935050604061361e87828801613479565b925050606085013567ffffffffffffffff81111561363f5761363e6133f5565b5b61364b878288016135a6565b91505092959194509250565b6000613662826133fa565b9050919050565b61367281613657565b811461367d57600080fd5b50565b60008135905061368f81613669565b92915050565b600080604083850312156136ac576136ab6133f0565b5b60006136ba85828601613680565b92505060206136cb85828601613479565b9150509250929050565b600080600080608085870312156136ef576136ee6133f0565b5b60006136fd87828801613680565b945050602061370e87828801613479565b935050604061371f87828801613479565b925050606085013567ffffffffffffffff8111156137405761373f6133f5565b5b61374c878288016135a6565b91505092959194509250565b60006020828403121561376e5761376d6133f0565b5b600061377c84828501613680565b91505092915050565b60008115159050919050565b61379a81613785565b82525050565b60006020820190506137b56000830184613791565b92915050565b6137c481613458565b82525050565b60006020820190506137df60008301846137bb565b92915050565b6137ee81613657565b82525050565b600060208201905061380960008301846137e5565b92915050565b60008060408385031215613826576138256133f0565b5b600061383485828601613680565b925050602061384585828601613680565b9150509250929050565b600060408201905061386460008301856137bb565b61387160208301846137e5565b9392505050565b600081519050919050565b600082825260208201905092915050565b6000819050602082019050919050565b6138ad81613657565b82525050565b60006138bf83836138a4565b60208301905092915050565b6000602082019050919050565b60006138e382613878565b6138ed8185613883565b93506138f883613894565b8060005b8381101561392957815161391088826138b3565b975061391b836138cb565b9250506001810190506138fc565b5085935050505092915050565b6000602082019050818103600083015261395081846138d8565b905092915050565b600082825260208201905092915050565b7f4e6f6e207065726d697373696f6e656420616464726573732063616c6c000000600082015250565b600061399f601d83613958565b91506139aa82613969565b602082019050919050565b600060208201905081810360008301526139ce81613992565b9050919050565b7f4e6f742066726f6d207468697320636f6e747261637400000000000000000000600082015250565b6000613a0b601683613958565b9150613a16826139d5565b602082019050919050565b60006020820190508181036000830152613a3a816139fe565b9050919050565b600080fd5b600081519050613a5581613669565b92915050565b613a6481613785565b8114613a6f57600080fd5b50565b600081519050613a8181613a5b565b92915050565b600081519050613a9681613462565b92915050565b600060e08284031215613ab257613ab1613a41565b5b613abc60e0613509565b90506000613acc84828501613a46565b6000830152506020613ae084828501613a46565b6020830152506040613af484828501613a72565b6040830152506060613b0884828501613a46565b6060830152506080613b1c84828501613a46565b60808301525060a0613b3084828501613a87565b60a08301525060c0613b4484828501613a87565b60c08301525092915050565b600060e08284031215613b6657613b656133f0565b5b6000613b7484828501613a9c565b91505092915050565b600081519050919050565b600082825260208201905092915050565b60005b83811015613bb7578082015181840152602081019050613b9c565b83811115613bc6576000848401525b50505050565b6000613bd782613b7d565b613be18185613b88565b9350613bf1818560208601613b99565b613bfa81613498565b840191505092915050565b6000608082019050613c1a60008301876137bb565b613c2760208301866137bb565b613c3460408301856137e5565b8181036060830152613c468184613bcc565b905095945050505050565b7f4f776e61626c653a2063616c6c6572206973206e6f7420746865206f776e6572600082015250565b6000613c87602083613958565b9150613c9282613c51565b602082019050919050565b60006020820190508181036000830152613cb681613c7a565b9050919050565b600060208284031215613cd357613cd26133f0565b5b6000613ce184828501613a87565b91505092915050565b6000604082019050613cff60008301856137e5565b613d0c60208301846137bb565b9392505050565b600060208284031215613d2957613d286133f0565b5b6000613d3784828501613a72565b91505092915050565b7f4e487b7100000000000000000000000000000000000000000000000000000000600052601160045260246000fd5b6000613d7a82613458565b91507fffffffffffffffffffffffffffffffffffffffffffffffffffffffffffffffff8203613dac57613dab613d40565b5b600182019050919050565b7f417262697472616765206661696c2c206e6f2070726f66697400000000000000600082015250565b6000613ded601983613958565b9150613df882613db7565b602082019050919050565b60006020820190508181036000830152613e1c81613de0565b9050919050565b613e2c81613785565b82525050565b613e3b81613458565b82525050565b60e082016000820151613e5760008501826138a4565b506020820151613e6a60208501826138a4565b506040820151613e7d6040850182613e23565b506060820151613e9060608501826138a4565b506080820151613ea360808501826138a4565b5060a0820151613eb660a0850182613e32565b5060c0820151613ec960c0850182613e32565b50505050565b600060e082019050613ee46000830184613e41565b92915050565b7f4c6f73696e67206d6f6e65790000000000000000000000000000000000000000600082015250565b6000613f20600c83613958565b9150613f2b82613eea565b602082019050919050565b60006020820190508181036000830152613f4f81613f13565b9050919050565b600060208284031215613f6c57613f6b6133f0565b5b6000613f7a84828501613a46565b91505092915050565b6000613f8e82613458565b9150613f9983613458565b925082821015613fac57613fab613d40565b5b828203905092915050565b7f4e487b7100000000000000000000000000000000000000000000000000000000600052603260045260246000fd5b7f4f776e61626c653a206e6577206f776e657220697320746865207a65726f206160008201527f6464726573730000000000000000000000000000000000000000000000000000602082015250565b6000614042602683613958565b915061404d82613fe6565b604082019050919050565b6000602082019050818103600083015261407181614035565b9050919050565b7f53616d6520706169722061646472657373000000000000000000000000000000600082015250565b60006140ae601183613958565b91506140b982614078565b602082019050919050565b600060208201905081810360008301526140dd816140a1565b9050919050565b7f4e6f6e207374616e6461726420756e697377617020414d4d2070616972000000600082015250565b600061411a601d83613958565b9150614125826140e4565b602082019050919050565b600060208201905081810360008301526141498161410d565b9050919050565b7f526571756972652073616d6520746f6b656e2070616972000000000000000000600082015250565b6000614186601783613958565b915061419182614150565b602082019050919050565b600060208201905081810360008301526141b581614179565b9050919050565b7f4e6f206261736520746f6b656e20696e20706169720000000000000000000000600082015250565b60006141f2601583613958565b91506141fd826141bc565b602082019050919050565b60006020820190508181036000830152614221816141e5565b9050919050565b600081519050919050565b600061423e82614228565b6142488185613958565b9350614258818560208601613b99565b61426181613498565b840191505092915050565b600060408201905081810360008301526142868185614233565b90506142956020830184613791565b9392505050565b60006dffffffffffffffffffffffffffff82169050919050565b6142bf8161429c565b81146142ca57600080fd5b50565b6000815190506142dc816142b6565b92915050565b600063ffffffff82169050919050565b6142fb816142e2565b811461430657600080fd5b50565b600081519050614318816142f2565b92915050565b600080600060608486031215614337576143366133f0565b5b6000614345868287016142cd565b9350506020614356868287016142cd565b925050604061436786828701614309565b9150509250925092565b6000604082019050818103600083015261438b8185614233565b905061439a60208301846137bb565b9392505050565b7f4e487b7100000000000000000000000000000000000000000000000000000000600052601260045260246000fd5b60006143db82613458565b91506143e683613458565b9250826143f6576143f56143a1565b5b828204905092915050565b6000819050919050565b600061441682614401565b915061442183614401565b9250827f7fffffffffffffffffffffffffffffffffffffffffffffffffffffffffffffff04821160008413600084131616156144605761445f613d40565b5b817f8000000000000000000000000000000000000000000000000000000000000000058312600084126000841316161561449d5761449c613d40565b5b827f800000000000000000000000000000000000000000000000000000000000000005821260008413600084121616156144da576144d9613d40565b5b827f7fffffffffffffffffffffffffffffffffffffffffffffffffffffffffffffff058212600084126000841216161561451757614516613d40565b5b828202905092915050565b600061452d82614401565b915061453883614401565b9250827f80000000000000000000000000000000000000000000000000000000000000000182126000841215161561457357614572613d40565b5b827f7fffffffffffffffffffffffffffffffffffffffffffffffffffffffffffffff0182136000841216156145ab576145aa613d40565b5b828203905092915050565b60006145c182614401565b91506145cc83614401565b9250817f7fffffffffffffffffffffffffffffffffffffffffffffffffffffffffffffff0383136000831215161561460757614606613d40565b5b817f800000000000000000000000000000000000000000000000000000000000000003831260008312161561463f5761463e613d40565b5b828201905092915050565b600061465582613458565b915061466083613458565b9250817fffffffffffffffffffffffffffffffffffffffffffffffffffffffffffffffff048311821515161561469957614698613d40565b5b828202905092915050565b7f556e697377617056324c6962726172793a20494e53554646494349454e545f4f60008201527f55545055545f414d4f554e540000000000000000000000000000000000000000602082015250565b6000614700602c83613958565b915061470b826146a4565b604082019050919050565b6000602082019050818103600083015261472f816146f3565b9050919050565b7f556e697377617056324c6962726172793a20494e53554646494349454e545f4c60008201527f4951554944495459000000000000000000000000000000000000000000000000602082015250565b6000614792602883613958565b915061479d82614736565b604082019050919050565b600060208201905081810360008301526147c181614785565b9050919050565b7f556e697377617056324c6962726172793a20494e53554646494349454e545f4960008201527f4e5055545f414d4f554e54000000000000000000000000000000000000000000602082015250565b6000614824602b83613958565b915061482f826147c8565b604082019050919050565b6000602082019050818103600083015261485381614817565b9050919050565b7f5361666545524332303a204552433230206f7065726174696f6e20646964206e60008201527f6f74207375636365656400000000000000000000000000000000000000000000602082015250565b60006148b6602a83613958565b91506148c18261485a565b604082019050919050565b600060208201905081810360008301526148e5816148a9565b9050919050565b60008160011c9050919050565b6000808291508390505b60018511156149435780860481111561491f5761491e613d40565b5b600185161561492e5780820291505b808102905061493c856148ec565b9450614903565b94509492505050565b60008260008114614964576001811461496e57614977565b6001915050614a33565b82915050614a33565b50816149865760009050614a33565b6001905060008213600181146149a357600081146149bb576149cf565b8286048311156149b6576149b5613d40565b5b6149cf565b8286058312156149ce576149cd613d40565b5b5b5060018316156149dd578190505b81820291506149eb836148ec565b92506149f9858484846148f9565b925090508185048111600082131615614a1557614a14613d40565b5b8184058112600082121615614a2d57614a2c613d40565b5b81810290505b949350505050565b600060ff82169050919050565b6000614a5382614401565b9150614a5e83614a3b565b9250614aac7f7fffffffffffffffffffffffffffffffffffffffffffffffffffffffffffffff7f8000000000000000000000000000000000000000000000000000000000000000858561494c565b905092915050565b7f436f6d706c6578206e756d626572000000000000000000000000000000000000600082015250565b6000614aea600e83613958565b9150614af582614ab4565b602082019050919050565b60006020820190508181036000830152614b1981614add565b9050919050565b6000614b2b82614401565b91507f80000000000000000000000000000000000000000000000000000000000000008203614b5d57614b5c613d40565b5b816000039050919050565b6000614b7382614401565b9150614b7e83614401565b925082614b8e57614b8d6143a1565b5b600160000383147f800000000000000000000000000000000000000000000000000000000000000083141615614bc757614bc6613d40565b5b828205905092915050565b6000614bdd82613458565b9150614be883613458565b9250827fffffffffffffffffffffffffffffffffffffffffffffffffffffffffffffffff03821115614c1d57614c1c613d40565b5b828201905092915050565b7f4e487b7100000000000000000000000000000000000000000000000000000000600052603160045260246000fd5b7f536166654d6174683a206d756c7469706c69636174696f6e206f766572666c6f60008201527f7700000000000000000000000000000000000000000000000000000000000000602082015250565b6000614cb3602183613958565b9150614cbe82614c57565b604082019050919050565b60006020820190508181036000830152614ce281614ca6565b9050919050565b7f4e487b7100000000000000000000000000000000000000000000000000000000600052600160045260246000fd5b7f416464726573733a20696e73756666696369656e742062616c616e636520666f60008201527f722063616c6c0000000000000000000000000000000000000000000000000000602082015250565b6000614d74602683613958565b9150614d7f82614d18565b604082019050919050565b60006020820190508181036000830152614da381614d67565b9050919050565b7f416464726573733a2063616c6c20746f206e6f6e2d636f6e7472616374000000600082015250565b6000614de0601d83613958565b9150614deb82614daa565b602082019050919050565b60006020820190508181036000830152614e0f81614dd3565b9050919050565b600081905092915050565b6000614e2c82613b7d565b614e368185614e16565b9350614e46818560208601613b99565b80840191505092915050565b6000614e5e8284614e21565b915081905092915050565b60006020820190508181036000830152614e838184614233565b90509291505056fea2646970667358221220f5d948f92277f6fe7811f0f1642038c650fc4a2a68169bb851f3e0c3943d9c6364736f6c634300080d0033",
  "linkReferences": {},
  "deployedLinkReferences": {}
}