{
  "_format": "hh-sol-artifact-1",
  "contractName": "FlashBotV3",
  "sourceName": "contracts/FlashBotV3.sol",
  "abi": [
    {
      "inputs": [
        {
          "internalType": "address",
          "name": "_WBNB",
          "type": "address"
        },
        {
          "internalType": "uint256",
          "name": "_minProfit",
          "type": "uint256"
        }
      ],
      "stateMutability": "nonpayable",
      "type": "constructor"
    },
    {
      "anonymous": false,
      "inputs": [
        {
          "indexed": true,
          "internalType": "address",
          "name": "token",
          "type": "address"
        }
      ],
      "name": "BaseTokenAdded",
      "type": "event"
    },
    {
      "anonymous": false,
      "inputs": [
        {
          "indexed": true,
          "internalType": "address",
          "name": "token",
          "type": "address"
        }
      ],
      "name": "BaseTokenRemoved",
      "type": "event"
    },
    {
      "anonymous": false,
      "inputs": [
        {
          "indexed": true,
          "internalType": "address",
          "name": "previousOwner",
          "type": "address"
        },
        {
          "indexed": true,
          "internalType": "address",
          "name": "newOwner",
          "type": "address"
        }
      ],
      "name": "OwnershipTransferred",
      "type": "event"
    },
    {
      "anonymous": false,
      "inputs": [
        {
          "indexed": true,
          "internalType": "address",
          "name": "to",
          "type": "address"
        },
        {
          "indexed": true,
          "internalType": "uint256",
          "name": "value",
          "type": "uint256"
        }
      ],
      "name": "Withdrawn",
      "type": "event"
    },
    {
      "stateMutability": "nonpayable",
      "type": "fallback"
    },
    {
      "inputs": [
        {
          "internalType": "address",
          "name": "token",
          "type": "address"
        },
        {
          "internalType": "uint256",
          "name": "_minProfit",
          "type": "uint256"
        }
      ],
      "name": "addBaseToken",
      "outputs": [],
      "stateMutability": "nonpayable",
      "type": "function"
    },
    {
      "inputs": [
        {
          "internalType": "address",
          "name": "",
          "type": "address"
        }
      ],
      "name": "baseTokensMinProfit",
      "outputs": [
        {
          "internalType": "uint256",
          "name": "",
          "type": "uint256"
        }
      ],
      "stateMutability": "view",
      "type": "function"
    },
    {
      "inputs": [
        {
          "internalType": "address",
          "name": "_lowerPool",
          "type": "address"
        },
        {
          "internalType": "address",
          "name": "_higherPool",
          "type": "address"
        },
        {
          "internalType": "bool",
          "name": "_isbaseTokenSmaller",
          "type": "bool"
        },
        {
          "internalType": "address",
          "name": "_baseToken",
          "type": "address"
        },
        {
          "internalType": "address",
          "name": "_quoteToken",
          "type": "address"
        },
        {
          "internalType": "uint256",
          "name": "_borrowAmount",
          "type": "uint256"
        }
      ],
      "name": "flashArbitrageForYulin",
      "outputs": [],
      "stateMutability": "nonpayable",
      "type": "function"
    },
    {
      "inputs": [],
      "name": "getBaseTokens",
      "outputs": [
        {
          "internalType": "address[]",
          "name": "tokens",
          "type": "address[]"
        }
      ],
      "stateMutability": "view",
      "type": "function"
    },
    {
      "inputs": [
        {
          "internalType": "uint256",
          "name": "_a1",
          "type": "uint256"
        },
        {
          "internalType": "uint256",
          "name": "_a2",
          "type": "uint256"
        },
        {
          "internalType": "uint256",
          "name": "_b1",
          "type": "uint256"
        },
        {
          "internalType": "uint256",
          "name": "_b2",
          "type": "uint256"
        },
        {
          "internalType": "address",
          "name": "_baseToken",
          "type": "address"
        }
      ],
      "name": "getProfit",
      "outputs": [
        {
          "internalType": "bool",
          "name": "isRun",
          "type": "bool"
        },
        {
          "internalType": "uint256",
          "name": "borrowAmount",
          "type": "uint256"
        }
      ],
      "stateMutability": "view",
      "type": "function"
    },
    {
      "inputs": [],
      "name": "owner",
      "outputs": [
        {
          "internalType": "address",
          "name": "",
          "type": "address"
        }
      ],
      "stateMutability": "view",
      "type": "function"
    },
    {
      "inputs": [
        {
          "internalType": "address",
          "name": "token",
          "type": "address"
        }
      ],
      "name": "removeBaseToken",
      "outputs": [],
      "stateMutability": "nonpayable",
      "type": "function"
    },
    {
      "inputs": [],
      "name": "renounceOwnership",
      "outputs": [],
      "stateMutability": "nonpayable",
      "type": "function"
    },
    {
      "inputs": [
        {
          "internalType": "address",
          "name": "token",
          "type": "address"
        },
        {
          "internalType": "uint256",
          "name": "_minProfit",
          "type": "uint256"
        }
      ],
      "name": "setBaseTokenMinProfit",
      "outputs": [],
      "stateMutability": "nonpayable",
      "type": "function"
    },
    {
      "inputs": [
        {
          "internalType": "address",
          "name": "newOwner",
          "type": "address"
        }
      ],
      "name": "transferOwnership",
      "outputs": [],
      "stateMutability": "nonpayable",
      "type": "function"
    },
    {
      "inputs": [
        {
          "internalType": "address",
          "name": "sender",
          "type": "address"
        },
        {
          "internalType": "uint256",
          "name": "amount0",
          "type": "uint256"
        },
        {
          "internalType": "uint256",
          "name": "amount1",
          "type": "uint256"
        },
        {
          "internalType": "bytes",
          "name": "data",
          "type": "bytes"
        }
      ],
      "name": "uniswapV2Call",
      "outputs": [],
      "stateMutability": "nonpayable",
      "type": "function"
    },
    {
      "inputs": [],
      "name": "wallet",
      "outputs": [
        {
          "internalType": "address",
          "name": "",
          "type": "address"
        }
      ],
      "stateMutability": "view",
      "type": "function"
    },
    {
      "stateMutability": "payable",
      "type": "receive"
    }
  ],
  "bytecode": "0x60c060405273626b0bb69bc86aa0e8b5a1c167857a66514e36e173ffffffffffffffffffffffffffffffffffffffff1660809073ffffffffffffffffffffffffffffffffffffffff168152503480156200005857600080fd5b5060405162003fdf38038062003fdf83398181016040528101906200007e919062000384565b6200009e620000926200013e60201b60201c565b6200014660201b60201c565b8173ffffffffffffffffffffffffffffffffffffffff1660a08173ffffffffffffffffffffffffffffffffffffffff1681525050806001600060a05173ffffffffffffffffffffffffffffffffffffffff1673ffffffffffffffffffffffffffffffffffffffff168152602001908152602001600020819055506200013560a05160026200020a60201b620013e21790919060201c565b505050620003cb565b600033905090565b60008060009054906101000a900473ffffffffffffffffffffffffffffffffffffffff169050816000806101000a81548173ffffffffffffffffffffffffffffffffffffffff021916908373ffffffffffffffffffffffffffffffffffffffff1602179055508173ffffffffffffffffffffffffffffffffffffffff168173ffffffffffffffffffffffffffffffffffffffff167f8be0079c531659141344cd1fd0a4f28419497f9722a3daafe3b4186f6b6457e060405160405180910390a35050565b60006200023a836000018373ffffffffffffffffffffffffffffffffffffffff1660001b6200024260201b60201c565b905092915050565b6000620002568383620002bc60201b60201c565b620002b1578260000182908060018154018082558091505060019003906000526020600020016000909190919091505582600001805490508360010160008481526020019081526020016000208190555060019050620002b6565b600090505b92915050565b600080836001016000848152602001908152602001600020541415905092915050565b600080fd5b600073ffffffffffffffffffffffffffffffffffffffff82169050919050565b60006200031182620002e4565b9050919050565b620003238162000304565b81146200032f57600080fd5b50565b600081519050620003438162000318565b92915050565b6000819050919050565b6200035e8162000349565b81146200036a57600080fd5b50565b6000815190506200037e8162000353565b92915050565b600080604083850312156200039e576200039d620002df565b5b6000620003ae8582860162000332565b9250506020620003c1858286016200036d565b9150509250929050565b60805160a051613be3620003fc6000396000505060008181610d2601528181610d7e015261112e0152613be36000f3fe6080604052600436106100ab5760003560e01c8063715018a611610064578063715018a6146102085780638da5cb5b1461021f578063964bbeb11461024a578063bbd1e12214610288578063bed64c2f146102b1578063f2fde38b146102dc576100b2565b80630aa67e7f146100fc57806310d1e85c14610125578063220df9891461014e5780633284bebe1461018b578063521eb273146101b45780636923d492146101df576100b2565b366100b257005b3480156100be57600080fd5b5060008060008060003660049080926100d99392919061238c565b8101906100e691906125ab565b93509350935093506100fa84848484610305565b005b34801561010857600080fd5b50610123600480360381019061011e919061266c565b6104f8565b005b34801561013157600080fd5b5061014c600480360381019061014791906126ac565b610305565b005b34801561015a57600080fd5b506101756004803603810190610170919061272f565b610614565b604051610182919061276b565b60405180910390f35b34801561019757600080fd5b506101b260048036038101906101ad91906127be565b61062c565b005b3480156101c057600080fd5b506101c9610d7c565b6040516101d6919061285a565b60405180910390f35b3480156101eb57600080fd5b506102066004803603810190610201919061266c565b610da0565b005b34801561021457600080fd5b5061021d610e64565b005b34801561022b57600080fd5b50610234610eec565b604051610241919061285a565b60405180910390f35b34801561025657600080fd5b50610271600480360381019061026c9190612875565b610f15565b60405161027f9291906128ff565b60405180910390f35b34801561029457600080fd5b506102af60048036038101906102aa919061272f565b61100d565b005b3480156102bd57600080fd5b506102c661120c565b6040516102d391906129e6565b60405180910390f35b3480156102e857600080fd5b5061030360048036038101906102fe919061272f565b6112eb565b005b3073ffffffffffffffffffffffffffffffffffffffff168473ffffffffffffffffffffffffffffffffffffffff1614610373576040517f08c379a000000000000000000000000000000000000000000000000000000000815260040161036a90612a65565b60405180910390fd5b60008084116103825782610384565b835b905060008280602001905181019061039c9190612b7d565b90506103d1816020015183836060015173ffffffffffffffffffffffffffffffffffffffff166114129092919063ffffffff16565b60008082604001516103e95760008360c001516103f1565b8260c0015160005b91509150826020015173ffffffffffffffffffffffffffffffffffffffff1663022c0d9f838330600067ffffffffffffffff81111561043357610432612480565b5b6040519080825280601f01601f1916602001820160405280156104655781602001600182028036833780820191505090505b506040518563ffffffff1660e01b81526004016104859493929190612c32565b600060405180830381600087803b15801561049f57600080fd5b505af11580156104b3573d6000803e3d6000fd5b505050506104ee83600001518460a00151856080015173ffffffffffffffffffffffffffffffffffffffff166114129092919063ffffffff16565b5050505050505050565b610500611498565b73ffffffffffffffffffffffffffffffffffffffff1661051e610eec565b73ffffffffffffffffffffffffffffffffffffffff1614610574576040517f08c379a000000000000000000000000000000000000000000000000000000000815260040161056b90612cca565b60405180910390fd5b6105888260026113e290919063ffffffff16565b5080600160008473ffffffffffffffffffffffffffffffffffffffff1673ffffffffffffffffffffffffffffffffffffffff168152602001908152602001600020819055508173ffffffffffffffffffffffffffffffffffffffff167ffa1388d6e7328e9c711a539b0addfc27de8bfb6f5924cce26f80f41023b1525360405160405180910390a25050565b60016020528060005260406000206000915090505481565b6000806000808715610779578973ffffffffffffffffffffffffffffffffffffffff16630902f1ac6040518163ffffffff1660e01b8152600401606060405180830381865afa158015610683573d6000803e3d6000fd5b505050506040513d601f19601f820116820180604052508101906106a79190612d6c565b826dffffffffffffffffffffffffffff169250816dffffffffffffffffffffffffffff1691505080945081955050508873ffffffffffffffffffffffffffffffffffffffff16630902f1ac6040518163ffffffff1660e01b8152600401606060405180830381865afa158015610721573d6000803e3d6000fd5b505050506040513d601f19601f820116820180604052508101906107459190612d6c565b826dffffffffffffffffffffffffffff169250816dffffffffffffffffffffffffffff1691505080925081935050506108b6565b8973ffffffffffffffffffffffffffffffffffffffff16630902f1ac6040518163ffffffff1660e01b8152600401606060405180830381865afa1580156107c4573d6000803e3d6000fd5b505050506040513d601f19601f820116820180604052508101906107e89190612d6c565b826dffffffffffffffffffffffffffff169250816dffffffffffffffffffffffffffff1691505080955081945050508873ffffffffffffffffffffffffffffffffffffffff16630902f1ac6040518163ffffffff1660e01b8152600401606060405180830381865afa158015610862573d6000803e3d6000fd5b505050506040513d601f19601f820116820180604052508101906108869190612d6c565b826dffffffffffffffffffffffffffff169250816dffffffffffffffffffffffffffff1691505080935081925050505b60006108c38686866114a0565b905060006108d28784866115b3565b90506109136040518060400160405280600a81526020017f64656274416d6f756e7400000000000000000000000000000000000000000000815250836116b9565b6109526040518060400160405280601281526020017f62617365546f6b656e4f7574416d6f756e740000000000000000000000000000815250826116b9565b808211806109a95750600160008a73ffffffffffffffffffffffffffffffffffffffff1673ffffffffffffffffffffffffffffffffffffffff1681526020019081526020016000205482826109a79190612dee565b105b156109b957505050505050610d74565b6109c16122e1565b8c816000019073ffffffffffffffffffffffffffffffffffffffff16908173ffffffffffffffffffffffffffffffffffffffff16815250508b816020019073ffffffffffffffffffffffffffffffffffffffff16908173ffffffffffffffffffffffffffffffffffffffff16815250508a81604001901515908115158152505088816060019073ffffffffffffffffffffffffffffffffffffffff16908173ffffffffffffffffffffffffffffffffffffffff168152505089816080019073ffffffffffffffffffffffffffffffffffffffff16908173ffffffffffffffffffffffffffffffffffffffff1681525050828160a0018181525050818160c0018181525050600081604051602001610ad89190612ece565b60405160208183030381529060405290508b15610b6a57816000015173ffffffffffffffffffffffffffffffffffffffff1663022c0d9f60008b30856040518563ffffffff1660e01b8152600401610b339493929190612c32565b600060405180830381600087803b158015610b4d57600080fd5b505af1158015610b61573d6000803e3d6000fd5b50505050610be1565b816000015173ffffffffffffffffffffffffffffffffffffffff1663022c0d9f8a600030856040518563ffffffff1660e01b8152600401610bae9493929190612c32565b600060405180830381600087803b158015610bc857600080fd5b505af1158015610bdc573d6000803e3d6000fd5b505050505b505060008973ffffffffffffffffffffffffffffffffffffffff166370a08231306040518263ffffffff1660e01b8152600401610c1e919061285a565b602060405180830381865afa158015610c3b573d6000803e3d6000fd5b505050506040513d601f19601f82011682018060405250810190610c5f9190612ee9565b9050600160008b73ffffffffffffffffffffffffffffffffffffffff1673ffffffffffffffffffffffffffffffffffffffff168152602001908152602001600020548111610ce2576040517f08c379a0000000000000000000000000000000000000000000000000000000008152600401610cd990612f62565b60405180910390fd5b610d216040518060400160405280600c81526020017f62616c616e636541667465720000000000000000000000000000000000000000815250826116b9565b610d6c7f0000000000000000000000000000000000000000000000000000000000000000828c73ffffffffffffffffffffffffffffffffffffffff166114129092919063ffffffff16565b505050505050505b505050505050565b7f000000000000000000000000000000000000000000000000000000000000000081565b610da8611498565b73ffffffffffffffffffffffffffffffffffffffff16610dc6610eec565b73ffffffffffffffffffffffffffffffffffffffff1614610e1c576040517f08c379a0000000000000000000000000000000000000000000000000000000008152600401610e1390612cca565b60405180910390fd5b80600160008473ffffffffffffffffffffffffffffffffffffffff1673ffffffffffffffffffffffffffffffffffffffff168152602001908152602001600020819055505050565b610e6c611498565b73ffffffffffffffffffffffffffffffffffffffff16610e8a610eec565b73ffffffffffffffffffffffffffffffffffffffff1614610ee0576040517f08c379a0000000000000000000000000000000000000000000000000000000008152600401610ed790612cca565b60405180910390fd5b610eea6000611755565b565b60008060009054906101000a900473ffffffffffffffffffffffffffffffffffffffff16905090565b6000806000610f2688888888611819565b905060008103610f3d576000809250925050611003565b6000610f4a828a896114a0565b9050610f8b6040518060400160405280600a81526020017f64656274416d6f756e7400000000000000000000000000000000000000000000815250826116b9565b6000610f98838a896115b3565b90508082108015610ff25750600160008773ffffffffffffffffffffffffffffffffffffffff1673ffffffffffffffffffffffffffffffffffffffff168152602001908152602001600020548282610ff09190612dee565b115b15610fff57600194508293505b5050505b9550959350505050565b611015611498565b73ffffffffffffffffffffffffffffffffffffffff16611033610eec565b73ffffffffffffffffffffffffffffffffffffffff1614611089576040517f08c379a000000000000000000000000000000000000000000000000000000000815260040161108090612cca565b60405180910390fd5b60008173ffffffffffffffffffffffffffffffffffffffff166370a08231306040518263ffffffff1660e01b81526004016110c4919061285a565b602060405180830381865afa1580156110e1573d6000803e3d6000fd5b505050506040513d601f19601f820116820180604052508101906111059190612ee9565b905060008111156111b0578173ffffffffffffffffffffffffffffffffffffffff1663a9059cbb7f0000000000000000000000000000000000000000000000000000000000000000836040518363ffffffff1660e01b815260040161116b929190612f82565b6020604051808303816000875af115801561118a573d6000803e3d6000fd5b505050506040513d601f19601f820116820180604052508101906111ae9190612fab565b505b6111c4826002611ba190919063ffffffff16565b508173ffffffffffffffffffffffffffffffffffffffff167fdc23a849435922f20a9732eb85192a9d0c1cb34725ebe6d7de0be10212ba02fb60405160405180910390a25050565b6060600061121a6002611bd1565b90508067ffffffffffffffff81111561123657611235612480565b5b6040519080825280602002602001820160405280156112645781602001602082028036833780820191505090505b50915060005b818110156112e657611286816002611be690919063ffffffff16565b83828151811061129957611298612fd8565b5b602002602001019073ffffffffffffffffffffffffffffffffffffffff16908173ffffffffffffffffffffffffffffffffffffffff168152505080806112de90613007565b91505061126a565b505090565b6112f3611498565b73ffffffffffffffffffffffffffffffffffffffff16611311610eec565b73ffffffffffffffffffffffffffffffffffffffff1614611367576040517f08c379a000000000000000000000000000000000000000000000000000000000815260040161135e90612cca565b60405180910390fd5b600073ffffffffffffffffffffffffffffffffffffffff168173ffffffffffffffffffffffffffffffffffffffff16036113d6576040517f08c379a00000000000000000000000000000000000000000000000000000000081526004016113cd906130c1565b60405180910390fd5b6113df81611755565b50565b600061140a836000018373ffffffffffffffffffffffffffffffffffffffff1660001b611c00565b905092915050565b6114938363a9059cbb60e01b8484604051602401611431929190612f82565b604051602081830303815290604052907bffffffffffffffffffffffffffffffffffffffffffffffffffffffff19166020820180517bffffffffffffffffffffffffffffffffffffffffffffffffffffffff8381831617835250505050611c70565b505050565b600033905090565b60008084116114e4576040517f08c379a00000000000000000000000000000000000000000000000000000000081526004016114db90613153565b60405180910390fd5b6000831180156114f45750600082115b611533576040517f08c379a000000000000000000000000000000000000000000000000000000000815260040161152a906131e5565b60405180910390fd5b600061155c6103e861154e8787611d3790919063ffffffff16565b611d3790919063ffffffff16565b905060006115876103e56115798887611d4d90919063ffffffff16565b611d3790919063ffffffff16565b90506115a86001828461159a9190613234565b611d6390919063ffffffff16565b925050509392505050565b60008084116115f7576040517f08c379a00000000000000000000000000000000000000000000000000000000081526004016115ee906132d7565b60405180910390fd5b6000831180156116075750600082115b611646576040517f08c379a000000000000000000000000000000000000000000000000000000000815260040161163d906131e5565b60405180910390fd5b600061165d6103e586611d3790919063ffffffff16565b905060006116748483611d3790919063ffffffff16565b9050600061169f836116916103e889611d3790919063ffffffff16565b611d6390919063ffffffff16565b905080826116ad9190613234565b93505050509392505050565b61175182826040516024016116cf92919061333b565b6040516020818303038152906040527f9710a9d0000000000000000000000000000000000000000000000000000000007bffffffffffffffffffffffffffffffffffffffffffffffffffffffff19166020820180517bffffffffffffffffffffffffffffffffffffffffffffffffffffffff8381831617835250505050611d79565b5050565b60008060009054906101000a900473ffffffffffffffffffffffffffffffffffffffff169050816000806101000a81548173ffffffffffffffffffffffffffffffffffffffff021916908373ffffffffffffffffffffffffffffffffffffffff1602179055508173ffffffffffffffffffffffffffffffffffffffff168173ffffffffffffffffffffffffffffffffffffffff167f8be0079c531659141344cd1fd0a4f28419497f9722a3daafe3b4186f6b6457e060405160405180910390a35050565b600080848610611829578461182b565b855b9050600083851061183c578361183e565b845b9050600081831061184f5781611851565b825b905061185c81611da2565b600069d3c21bcecceda10000008211156118815768056bc75e2d631000009050611a2c565b69152d02c7e14af68000008211156118a357678ac7230489e800009050611a2b565b69021e19e0c9bab24000008211156118c557670de0b6b3a76400009050611a2a565b683635c9adc5dea000008211156118e65767016345785d8a00009050611a29565b68056bc75e2d6310000082111561190657662386f26fc100009050611a28565b678ac7230489e800008211156119255766038d7ea4c680009050611a27565b670de0b6b3a764000082111561194357655af3107a40009050611a26565b67016345785d8a0000821115611961576509184e72a0009050611a25565b662386f26fc1000082111561197d5764e8d4a510009050611a24565b66038d7ea4c680008211156119995764174876e8009050611a23565b655af3107a40008211156119b4576402540be4009050611a22565b6509184e72a0008211156119ce57633b9aca009050611a21565b64e8d4a510008211156119e7576305f5e1009050611a20565b64174876e8008211156119ff57629896809050611a1f565b6402540be400821115611a1757620f42409050611a1e565b620186a090505b5b5b5b5b5b5b5b5b5b5b5b5b5b5b611a3581611da2565b600080600080848d611a479190613234565b858d611a539190613234565b868d611a5f9190613234565b878d611a6b9190613234565b935093509350935060008184611a819190613375565b8386611a8d9190613375565b611a97919061348c565b905060008486611aa79190613520565b83856002611ab59190613375565b611abf9190613375565b611ac99190613375565b905060008486611ad99190613375565b8488611ae59190613375565b611aef919061348c565b8486611afb9190613375565b611b059190613375565b9050600080611b15858585611e3b565b91509150600082138015611b2857508682125b8015611b3357508582125b80611b545750600081138015611b4857508681125b8015611b5357508581125b5b15611b8c578682128015611b6757508582125b611b7c578981611b7791906135b4565b611b89565b8982611b8891906135b4565b5b9d505b50505050505050505050505050949350505050565b6000611bc9836000018373ffffffffffffffffffffffffffffffffffffffff1660001b611f27565b905092915050565b6000611bdf8260000161203b565b9050919050565b6000611bf5836000018361204c565b60001c905092915050565b6000611c0c8383612077565b611c65578260000182908060018154018082558091505060019003906000526020600020016000909190919091505582600001805490508360010160008481526020019081526020016000208190555060019050611c6a565b600090505b92915050565b6000611cd2826040518060400160405280602081526020017f5361666545524332303a206c6f772d6c6576656c2063616c6c206661696c65648152508573ffffffffffffffffffffffffffffffffffffffff1661209a9092919063ffffffff16565b9050600081511115611d325780806020019051810190611cf29190612fab565b611d31576040517f08c379a0000000000000000000000000000000000000000000000000000000008152600401611d2890613680565b60405180910390fd5b5b505050565b60008183611d4591906135b4565b905092915050565b60008183611d5b9190612dee565b905092915050565b60008183611d7191906136a0565b905092915050565b60008151905060006a636f6e736f6c652e6c6f679050602083016000808483855afa5050505050565b611e3881604051602401611db6919061276b565b6040516020818303038152906040527ff5b1bba9000000000000000000000000000000000000000000000000000000007bffffffffffffffffffffffffffffffffffffffffffffffffffffffff19166020820180517bffffffffffffffffffffffffffffffffffffffffffffffffffffffff8381831617835250505050611d79565b50565b600080600083866004611e4e9190613375565b611e589190613375565b600286611e659190613852565b611e6f919061348c565b905060008113611eb4576040517f08c379a0000000000000000000000000000000000000000000000000000000008152600401611eab9061390a565b60405180910390fd5b6000611ebf826120b2565b9050866002611ece9190613375565b8187611ed99061392a565b611ee39190613520565b611eed9190613972565b9350866002611efc9190613375565b8187611f079061392a565b611f11919061348c565b611f1b9190613972565b92505050935093915050565b6000808360010160008481526020019081526020016000205490506000811461202f576000600182611f599190612dee565b9050600060018660000180549050611f719190612dee565b9050818114611fe0576000866000018281548110611f9257611f91612fd8565b5b9060005260206000200154905080876000018481548110611fb657611fb5612fd8565b5b90600052602060002001819055508387600101600083815260200190815260200160002081905550505b85600001805480611ff457611ff36139dc565b5b600190038181906000526020600020016000905590558560010160008681526020019081526020016000206000905560019350505050612035565b60009150505b92915050565b600081600001805490509050919050565b600082600001828154811061206457612063612fd8565b5b9060005260206000200154905092915050565b600080836001016000848152602001908152602001600020541415905092915050565b60606120a98484600085612143565b90509392505050565b6000600182116120c5576120c4613a0b565b5b6000620f4240836120d691906135b4565b9050600081905081925060005b60011561212b57600284836120f89190613234565b8561210391906136a0565b61210d9190613234565b90506103e8818561211e9190612dee565b1061212b578093506120e3565b6103e8846121399190613234565b9350505050919050565b606082471015612188576040517f08c379a000000000000000000000000000000000000000000000000000000000815260040161217f90613aac565b60405180910390fd5b61219185612257565b6121d0576040517f08c379a00000000000000000000000000000000000000000000000000000000081526004016121c790613b18565b60405180910390fd5b6000808673ffffffffffffffffffffffffffffffffffffffff1685876040516121f99190613b74565b60006040518083038185875af1925050503d8060008114612236576040519150601f19603f3d011682016040523d82523d6000602084013e61223b565b606091505b509150915061224b82828661227a565b92505050949350505050565b6000808273ffffffffffffffffffffffffffffffffffffffff163b119050919050565b6060831561228a578290506122da565b60008351111561229d5782518084602001fd5b816040517f08c379a00000000000000000000000000000000000000000000000000000000081526004016122d19190613b8b565b60405180910390fd5b9392505050565b6040518060e00160405280600073ffffffffffffffffffffffffffffffffffffffff168152602001600073ffffffffffffffffffffffffffffffffffffffff168152602001600015158152602001600073ffffffffffffffffffffffffffffffffffffffff168152602001600073ffffffffffffffffffffffffffffffffffffffff16815260200160008152602001600081525090565b6000604051905090565b600080fd5b600080fd5b600080858511156123a05761239f612382565b5b838611156123b1576123b0612387565b5b6001850283019150848603905094509492505050565b600080fd5b600080fd5b600073ffffffffffffffffffffffffffffffffffffffff82169050919050565b60006123fc826123d1565b9050919050565b61240c816123f1565b811461241757600080fd5b50565b60008135905061242981612403565b92915050565b6000819050919050565b6124428161242f565b811461244d57600080fd5b50565b60008135905061245f81612439565b92915050565b600080fd5b600080fd5b6000601f19601f8301169050919050565b7f4e487b7100000000000000000000000000000000000000000000000000000000600052604160045260246000fd5b6124b88261246f565b810181811067ffffffffffffffff821117156124d7576124d6612480565b5b80604052505050565b60006124ea612378565b90506124f682826124af565b919050565b600067ffffffffffffffff82111561251657612515612480565b5b61251f8261246f565b9050602081019050919050565b82818337600083830152505050565b600061254e612549846124fb565b6124e0565b90508281526020810184848401111561256a5761256961246a565b5b61257584828561252c565b509392505050565b600082601f83011261259257612591612465565b5b81356125a284826020860161253b565b91505092915050565b600080600080608085870312156125c5576125c46123c7565b5b60006125d38782880161241a565b94505060206125e487828801612450565b93505060406125f587828801612450565b925050606085013567ffffffffffffffff811115612616576126156123cc565b5b6126228782880161257d565b91505092959194509250565b6000612639826123d1565b9050919050565b6126498161262e565b811461265457600080fd5b50565b60008135905061266681612640565b92915050565b60008060408385031215612683576126826123c7565b5b600061269185828601612657565b92505060206126a285828601612450565b9150509250929050565b600080600080608085870312156126c6576126c56123c7565b5b60006126d487828801612657565b94505060206126e587828801612450565b93505060406126f687828801612450565b925050606085013567ffffffffffffffff811115612717576127166123cc565b5b6127238782880161257d565b91505092959194509250565b600060208284031215612745576127446123c7565b5b600061275384828501612657565b91505092915050565b6127658161242f565b82525050565b6000602082019050612780600083018461275c565b92915050565b60008115159050919050565b61279b81612786565b81146127a657600080fd5b50565b6000813590506127b881612792565b92915050565b60008060008060008060c087890312156127db576127da6123c7565b5b60006127e989828a01612657565b96505060206127fa89828a01612657565b955050604061280b89828a016127a9565b945050606061281c89828a01612657565b935050608061282d89828a01612657565b92505060a061283e89828a01612450565b9150509295509295509295565b6128548161262e565b82525050565b600060208201905061286f600083018461284b565b92915050565b600080600080600060a08688031215612891576128906123c7565b5b600061289f88828901612450565b95505060206128b088828901612450565b94505060406128c188828901612450565b93505060606128d288828901612450565b92505060806128e388828901612657565b9150509295509295909350565b6128f981612786565b82525050565b600060408201905061291460008301856128f0565b612921602083018461275c565b9392505050565b600081519050919050565b600082825260208201905092915050565b6000819050602082019050919050565b61295d8161262e565b82525050565b600061296f8383612954565b60208301905092915050565b6000602082019050919050565b600061299382612928565b61299d8185612933565b93506129a883612944565b8060005b838110156129d95781516129c08882612963565b97506129cb8361297b565b9250506001810190506129ac565b5085935050505092915050565b60006020820190508181036000830152612a008184612988565b905092915050565b600082825260208201905092915050565b7f4e6f742066726f6d207468697320636f6e747261637400000000000000000000600082015250565b6000612a4f601683612a08565b9150612a5a82612a19565b602082019050919050565b60006020820190508181036000830152612a7e81612a42565b9050919050565b600080fd5b600081519050612a9981612640565b92915050565b600081519050612aae81612792565b92915050565b600081519050612ac381612439565b92915050565b600060e08284031215612adf57612ade612a85565b5b612ae960e06124e0565b90506000612af984828501612a8a565b6000830152506020612b0d84828501612a8a565b6020830152506040612b2184828501612a9f565b6040830152506060612b3584828501612a8a565b6060830152506080612b4984828501612a8a565b60808301525060a0612b5d84828501612ab4565b60a08301525060c0612b7184828501612ab4565b60c08301525092915050565b600060e08284031215612b9357612b926123c7565b5b6000612ba184828501612ac9565b91505092915050565b600081519050919050565b600082825260208201905092915050565b60005b83811015612be4578082015181840152602081019050612bc9565b83811115612bf3576000848401525b50505050565b6000612c0482612baa565b612c0e8185612bb5565b9350612c1e818560208601612bc6565b612c278161246f565b840191505092915050565b6000608082019050612c47600083018761275c565b612c54602083018661275c565b612c61604083018561284b565b8181036060830152612c738184612bf9565b905095945050505050565b7f4f776e61626c653a2063616c6c6572206973206e6f7420746865206f776e6572600082015250565b6000612cb4602083612a08565b9150612cbf82612c7e565b602082019050919050565b60006020820190508181036000830152612ce381612ca7565b9050919050565b60006dffffffffffffffffffffffffffff82169050919050565b612d0d81612cea565b8114612d1857600080fd5b50565b600081519050612d2a81612d04565b92915050565b600063ffffffff82169050919050565b612d4981612d30565b8114612d5457600080fd5b50565b600081519050612d6681612d40565b92915050565b600080600060608486031215612d8557612d846123c7565b5b6000612d9386828701612d1b565b9350506020612da486828701612d1b565b9250506040612db586828701612d57565b9150509250925092565b7f4e487b7100000000000000000000000000000000000000000000000000000000600052601160045260246000fd5b6000612df98261242f565b9150612e048361242f565b925082821015612e1757612e16612dbf565b5b828203905092915050565b612e2b81612786565b82525050565b612e3a8161242f565b82525050565b60e082016000820151612e566000850182612954565b506020820151612e696020850182612954565b506040820151612e7c6040850182612e22565b506060820151612e8f6060850182612954565b506080820151612ea26080850182612954565b5060a0820151612eb560a0850182612e31565b5060c0820151612ec860c0850182612e31565b50505050565b600060e082019050612ee36000830184612e40565b92915050565b600060208284031215612eff57612efe6123c7565b5b6000612f0d84828501612ab4565b91505092915050565b7f4c6f73696e67206d6f6e65790000000000000000000000000000000000000000600082015250565b6000612f4c600c83612a08565b9150612f5782612f16565b602082019050919050565b60006020820190508181036000830152612f7b81612f3f565b9050919050565b6000604082019050612f97600083018561284b565b612fa4602083018461275c565b9392505050565b600060208284031215612fc157612fc06123c7565b5b6000612fcf84828501612a9f565b91505092915050565b7f4e487b7100000000000000000000000000000000000000000000000000000000600052603260045260246000fd5b60006130128261242f565b91507fffffffffffffffffffffffffffffffffffffffffffffffffffffffffffffffff820361304457613043612dbf565b5b600182019050919050565b7f4f776e61626c653a206e6577206f776e657220697320746865207a65726f206160008201527f6464726573730000000000000000000000000000000000000000000000000000602082015250565b60006130ab602683612a08565b91506130b68261304f565b604082019050919050565b600060208201905081810360008301526130da8161309e565b9050919050565b7f556e697377617056324c6962726172793a20494e53554646494349454e545f4f60008201527f55545055545f414d4f554e540000000000000000000000000000000000000000602082015250565b600061313d602c83612a08565b9150613148826130e1565b604082019050919050565b6000602082019050818103600083015261316c81613130565b9050919050565b7f556e697377617056324c6962726172793a20494e53554646494349454e545f4c60008201527f4951554944495459000000000000000000000000000000000000000000000000602082015250565b60006131cf602883612a08565b91506131da82613173565b604082019050919050565b600060208201905081810360008301526131fe816131c2565b9050919050565b7f4e487b7100000000000000000000000000000000000000000000000000000000600052601260045260246000fd5b600061323f8261242f565b915061324a8361242f565b92508261325a57613259613205565b5b828204905092915050565b7f556e697377617056324c6962726172793a20494e53554646494349454e545f4960008201527f4e5055545f414d4f554e54000000000000000000000000000000000000000000602082015250565b60006132c1602b83612a08565b91506132cc82613265565b604082019050919050565b600060208201905081810360008301526132f0816132b4565b9050919050565b600081519050919050565b600061330d826132f7565b6133178185612a08565b9350613327818560208601612bc6565b6133308161246f565b840191505092915050565b600060408201905081810360008301526133558185613302565b9050613364602083018461275c565b9392505050565b6000819050919050565b60006133808261336b565b915061338b8361336b565b9250827f7fffffffffffffffffffffffffffffffffffffffffffffffffffffffffffffff04821160008413600084131616156133ca576133c9612dbf565b5b817f8000000000000000000000000000000000000000000000000000000000000000058312600084126000841316161561340757613406612dbf565b5b827f8000000000000000000000000000000000000000000000000000000000000000058212600084136000841216161561344457613443612dbf565b5b827f7fffffffffffffffffffffffffffffffffffffffffffffffffffffffffffffff058212600084126000841216161561348157613480612dbf565b5b828202905092915050565b60006134978261336b565b91506134a28361336b565b9250827f8000000000000000000000000000000000000000000000000000000000000000018212600084121516156134dd576134dc612dbf565b5b827f7fffffffffffffffffffffffffffffffffffffffffffffffffffffffffffffff01821360008412161561351557613514612dbf565b5b828203905092915050565b600061352b8261336b565b91506135368361336b565b9250817f7fffffffffffffffffffffffffffffffffffffffffffffffffffffffffffffff0383136000831215161561357157613570612dbf565b5b817f80000000000000000000000000000000000000000000000000000000000000000383126000831216156135a9576135a8612dbf565b5b828201905092915050565b60006135bf8261242f565b91506135ca8361242f565b9250817fffffffffffffffffffffffffffffffffffffffffffffffffffffffffffffffff048311821515161561360357613602612dbf565b5b828202905092915050565b7f5361666545524332303a204552433230206f7065726174696f6e20646964206e60008201527f6f74207375636365656400000000000000000000000000000000000000000000602082015250565b600061366a602a83612a08565b91506136758261360e565b604082019050919050565b600060208201905081810360008301526136998161365d565b9050919050565b60006136ab8261242f565b91506136b68361242f565b9250827fffffffffffffffffffffffffffffffffffffffffffffffffffffffffffffffff038211156136eb576136ea612dbf565b5b828201905092915050565b60008160011c9050919050565b6000808291508390505b600185111561374d5780860481111561372957613728612dbf565b5b60018516156137385780820291505b8081029050613746856136f6565b945061370d565b94509492505050565b6000826000811461376e576001811461377857613781565b600191505061383d565b8291505061383d565b5081613790576000905061383d565b6001905060008213600181146137ad57600081146137c5576137d9565b8286048311156137c0576137bf612dbf565b5b6137d9565b8286058312156137d8576137d7612dbf565b5b5b5060018316156137e7578190505b81820291506137f5836136f6565b925061380385848484613703565b92509050818504811160008213161561381f5761381e612dbf565b5b818405811260008212161561383757613836612dbf565b5b81810290505b949350505050565b600060ff82169050919050565b600061385d8261336b565b915061386883613845565b92506138b67f7fffffffffffffffffffffffffffffffffffffffffffffffffffffffffffffff7f80000000000000000000000000000000000000000000000000000000000000008585613756565b905092915050565b7f436f6d706c6578206e756d626572000000000000000000000000000000000000600082015250565b60006138f4600e83612a08565b91506138ff826138be565b602082019050919050565b60006020820190508181036000830152613923816138e7565b9050919050565b60006139358261336b565b91507f8000000000000000000000000000000000000000000000000000000000000000820361396757613966612dbf565b5b816000039050919050565b600061397d8261336b565b91506139888361336b565b92508261399857613997613205565b5b600160000383147f8000000000000000000000000000000000000000000000000000000000000000831416156139d1576139d0612dbf565b5b828205905092915050565b7f4e487b7100000000000000000000000000000000000000000000000000000000600052603160045260246000fd5b7f4e487b7100000000000000000000000000000000000000000000000000000000600052600160045260246000fd5b7f416464726573733a20696e73756666696369656e742062616c616e636520666f60008201527f722063616c6c0000000000000000000000000000000000000000000000000000602082015250565b6000613a96602683612a08565b9150613aa182613a3a565b604082019050919050565b60006020820190508181036000830152613ac581613a89565b9050919050565b7f416464726573733a2063616c6c20746f206e6f6e2d636f6e7472616374000000600082015250565b6000613b02601d83612a08565b9150613b0d82613acc565b602082019050919050565b60006020820190508181036000830152613b3181613af5565b9050919050565b600081905092915050565b6000613b4e82612baa565b613b588185613b38565b9350613b68818560208601612bc6565b80840191505092915050565b6000613b808284613b43565b915081905092915050565b60006020820190508181036000830152613ba58184613302565b90509291505056fea26469706673582212208a71512e301cb15935aa56ac116326f20a395bcb80f7144a24eb7ad6f44b845164736f6c634300080d0033",
  "linkReferences": {},
  "deployedLinkReferences": {}
}